:020000040800F2
:1000000000280020F5200008DD1F0008E31F00087D
:10001000E91F0008EF1F0008F51F0008000000009E
:10002000000000000000000000000000FB1F0008AE
:100030000720000800000000132000081F2000080F
:100040003D2100083D2100083D2100083D21000818
:100050003D2100083D2100083D2100083D21000808
:100060003D2100083D2100083D2100083D210008F8
:100070003D2100083D2100083D2100083D210008E8
:100080003D2100083D2100083D2100083D210008D8
:100090003D2100083D2100083D2100083D210008C8
:1000A0003D2100083D2100083D2100083D210008B8
:1000B0002D2000083D210008000000003D2100081F
:1000C0003D21000800000000000000003D21000864
:1000D000000000003D2100083D2100080000000054
:1000E0003D2100083D2100083D21000800000000DE
:1000F0000000000000000000000000000000000000
:0C01000000000000000000005FF808F1A3
:10010C0010B5054C237833B9044B13B10448AFF345
:10011C0000800123237010BD54000020000000005B
:10012C006C37000808B5034B1BB103490348AFF308
:10013C00008008BD00000000580000206C3700084B
:10014C0080B500AF274B1B78022B38D0022B40DC3C
:10015C00002B02D0012B1ED03BE0002001F052FA04
:10016C000346002B37D0204B1B68204A13601E4BD4
:10017C001B681F4A13601C4B0A221A601D4B01227C
:10018C001A601D4B1B681946032001F059FF154BD3
:10019C0001221A701FE0002001F034FA0346002BF4
:1001AC0003D1104B00221A7017E0002001F044FA22
:1001BC000346002B11D00B4B02221A700DE00020CD
:1001CC0001F020FA0346002B09D1064B00221A70CD
:1001DC0005E000BF04E000BF02E000BF00E000BF8C
:1001EC0000BF80BDE4000020C8000020CC0000202F
:1001FC00D0000020C40000201000002080B500AF0B
:10020C002B4B1B68013B032B4ED801A252F823F059
:10021C002D0200084F02000871020008930200082A
:10022C004FF48051234802F09EFA4FF400512148BC
:10023C0002F099FA204B1B681946002001F000FFD0
:10024C0033E04FF400611B4802F08DFA4FF400517B
:10025C00184802F088FA184B1B681946002001F068
:10026C00EFFE22E04FF48061124802F07CFA4FF46A
:10027C000041104802F077FA0F4B1B68194600201A
:10028C0001F0DEFE11E04FF480610A4802F06BFAD7
:10029C004FF48041074802F066FA074B1B68194679
:1002AC00002001F0CDFE00E000BF00BF80BD00BF0C
:1002BC00D0000020000C01400400002080B400AFEE
:1002CC00434B1B68042B54D0042B75DC022B02D03F
:1002DC00032B2BD070E03F4B1B68032B03D03D4B03
:1002EC001B68042B0CD13C4B1B6801333A4A13603E
:1002FC00394B1B68394A1360374B1B68384A1360FB
:10030C00344B1B68012B03D0324B1B68022B55D18D
:10031C00344B1B680133334A1360324B1B682F4A32
:10032C001360304B1B682E4A136047E0294B1B6847
:10033C00022B0CD1284B1B680133274A1360264B28
:10034C001B68294A1360244B1B68284A1360214BF5
:10035C001B68042B34D1234B1B680133214A1360D7
:10036C00204B1B68204A13601E4B1B681F4A1360EE
:10037C0026E0184B1B68012B0CD1174B1B68013363
:10038C00154A1360144B1B68194A1360124B1B68F7
:10039C00184A13600F4B1B68032B13D1114B1B68AE
:1003AC000133104A13600C4B1B68114A13600A4B43
:1003BC001B68104A136005E000BF04E000BF02E0B8
:1003CC0000BF00E000BF00BFBD4680BC704700BF4F
:1003DC00C4000020D0000020D40000203C000020ED
:1003EC0040000020D8000020300000203800002001
:1003FC002C0000203400002080B400AF1C4B1B6884
:10040C00013B032B2ED801A252F823F0290400083B
:10041C003B0400084D0400085F040008154B1B68E2
:10042C00154A1360154B1B68154A13601BE0114BE2
:10043C001B68144A1360114B1B68114A136012E0BD
:10044C000C4B1B68104A13600C4B1B680F4A136053
:10045C0009E0084B1B680C4A1360084B1B680C4ADC
:10046C00136000E000BF00BFBD4680BC704700BFFA
:10047C00D0000020DC0000202C000020E000002038
:10048C0040000020300000203C0000203400002000
:10049C003800002080B400AF1A4B1B68013B032BC3
:1004AC002AD801A252F823F0C5040008D50400088C
:1004BC00E5040008F5040008134B1B68134A13608D
:1004CC00114B01221A6018E00F4B1B680F4A136086
:1004DC000D4B02221A6010E00B4B1B680B4A136089
:1004EC00094B03221A6008E0074B1B68074A13608C
:1004FC00054B04221A6000E000BF00BFBD4680BC63
:10050C00704700BFD0000020C8000020CC000020A5
:10051C0080B400AF2A4B1B68042B30D0042B43DC77
:10052C00022B02D0032B15D03EE0264B1A68264B2B
:10053C001B689A423AD0234B1A68244B1B68D31A77
:10054C00234A1360234B1A68234B1B68D31A234A84
:10055C0013602BE01D4B1A681B4B1B689A4227D06B
:10056C001A4B1A681A4B1B681344164A13601A4B21
:10057C001A681A4B1B681344164A136018E0144B84
:10058C001A68114B1B689A4214D0104B1A68104B06
:10059C001B6813440B4A13600F4B1A680F4B1B68F4
:1005AC0013440C4A136005E000BF04E000BF02E0F6
:1005BC0000BF00E000BF00BFBD4680BC704700BF5D
:1005CC00C40000203C000020DC0000203000002093
:1005DC002C000020400000203800002034000020B7
:1005EC0080B500AF744B1B68744A1168744A12686A
:1005FC00184601F00BFB734B1B68162B00F25F8740
:10060C0001A252F823F000BF71060008F50600089D
:10061C002D08000803090008D1090008CB140008B4
:10062C00CB140008CB140008CB140008CB14000822
:10063C00F50A0008790C00086F0E00086910000814
:10064C00CB140008CB140008CB140008CB14000802
:10065C00CB140008CB14000823120008EF13000879
:10066C0047140008002001F001F8574B1B680A2BB7
:10067C0017D1564B1B68564A1360564B1B68564A8B
:10068C001360564B1B68564A1360564B1B68564AF0
:10069C001360564B1B68564A1360564B1B68564AE0
:1006AC001360484B1B68484A1360464B01221A6082
:1006BC004B4B1B68404A13604B4B1B683F4A136003
:1006CC004E4B1B681946002001F0BAFC4C4B1B68C2
:1006DC001946012001F0B4FC4A4B1B681946022054
:1006EC0001F0AEFC00F0ECBE012000F0BFFF3C4B73
:1006FC001B68454A13603C4B1B68444A1360444BCF
:10070C001B68012B0FD14FF48051424802F02BF89B
:10071C004FF400513F4802F026F8384B1B6819463D
:10072C00002001F08DFC3A4B5B68012B14D13A4B45
:10073C001B685A1C38490A60184601F0FDF9364B03
:10074C001B68052B02DD344B00221A602C4B1B68F6
:10075C001946012001F074FC2D4B9B68012B26D10E
:10076C00154B1B68013B144A1360144B1B68013B6F
:10077C00124A1360104B1B68002B03DD0F4B1B68D8
:10078C00002B0EDC0F4B1B68244A13600D4B1B68AF
:10079C000D4A13600B4B02221A600F4B1B68064A62
:1007AC001360184B1B681946022001F049FCFFF737
:1007BC00C7FC00F085BE00BFD4000020D80000208C
:1007CC00C4000020C8000020CC00002084370008A2
:1007DC003C00002088370008300000208C370008CF
:1007EC002C000020903700084000002094370008AF
:1007FC003800002098370008340000200400002046
:10080C00080000200C000020DC000020E00000208C
:10081C0098000020000C0140C0000020D0000020F7
:10082C00022000F023FF9D4B1B689D4A13609D4BDB
:10083C001B689D4A13609D4B1B68012B0FD14FF415
:10084C0000619B4801F08FFF4FF40051984801F074
:10085C008AFF984B1B681946002001F0F1FB934B63
:10086C005B68012B14D1944B1B685A1C92490A608B
:10087C00184601F061F9904B1B68052B02DD8E4B7D
:10088C0000221A608D4B1B681946012001F0D8FB21
:10089C00864B9B68012B2AD1894B1B68013B884AEC
:1008AC001360884B1B68013B864A1360844B1B68A2
:1008BC00002B03DD834B1B68002B12DC824B1B6867
:1008CC00824A1360804B1B68814A13607E4B032263
:1008DC001A60804B1B687A4A13607F4B1B68794AFD
:1008EC0013607E4B1B681946022001F0A9FBFFF731
:1008FC0027FC00F0E5BD032000F0B8FE754B1B682B
:10090C00674A1360744B1B68674A1360674B1B681C
:10091C00012B0FD14FF48061654801F024FF4FF497
:10092C000041634801F01FFF624B1B681946002011
:10093C0001F086FB5D4B5B68012B14D15E4B1B6891
:10094C005A1C5D490A60184601F0F6F85A4B1B68B0
:10095C00052B02DD584B00221A60584B1B681946B8
:10096C00012001F06DFB514B9B68012B26D1544BA0
:10097C001B68013B524A1360524B1B68013B514AA6
:10098C0013604F4B1B68002B03DD4E4B1B68002B79
:10099C000EDC4D4B1B684D4A13604B4B1B684C4A8D
:1009AC001360494B04221A604D4B1B68454A136077
:1009BC004A4B1B681946022001F042FBFFF7C0FBB3
:1009CC0000F07EBD042000F051FE424B1B68344AFF
:1009DC001360434B1B68344A1360344B1B68012B68
:1009EC000FD14FF48061324801F0BDFE4FF48041CD
:1009FC002F4801F0B8FE2F4B1B681946002001F060
:100A0C001FFB2A4B5B68012B14D12B4B1B685A1C08
:100A1C0029490A60184601F08FF8274B1B68052BF3
:100A2C0002DD254B00221A60244B1B68194601205D
:100A3C0001F006FB1D4B9B68012B2AD1204B1B6838
:100A4C00013B1F4A13601F4B1B68013B1D4A13607F
:100A5C001B4B1B68002B03DD1A4B1B68002B12DC95
:100A6C00194B1B68194A1360174B1B68184A136003
:100A7C00154B01221A601B4B1B68114A1360094B62
:100A8C001B68104A1360154B1B681946022001F0B5
:100A9C00D7FAFFF755FB00F013BD00BF3000002064
:100AAC00DC00002040000020E00000209800002026
:100ABC00000C014004000020C000002008000020B1
:100ACC00D4000020D8000020C8000020D000002056
:100ADC00CC0000203C000020340000200C00002042
:100AEC00380000202C000020A24B1B68184600F098
:100AFC00BDFDA14B1B68012B01D1FFF77FFB9E4B6A
:100B0C005B68012B14D19D4B1B685A1C9B490A60D6
:100B1C00184601F011F8994B1B68052B02DD974B19
:100B2C0000221A60964B1B681946012001F088FAC6
:100B3C00914BDB68012B06D1924B1B68924A1360D8
:100B4C00904B15221A60914B1B78022B34D0022B40
:100B5C003CDC002B02D0012B1AD037E0002000F037
:100B6C0051FD0346002B33D0864B1B68864A13601D
:100B7C00844B0B221A60864B02221A60854B1B6831
:100B8C001946032001F05CFA804B01221A701FE019
:100B9C00002000F037FD0346002B03D17B4B0022D5
:100BAC001A7017E0002000F047FD0346002B11D00F
:100BBC00764B02221A700DE0002000F023FD034654
:100BCC00002B09D1714B00221A7005E000BF04E024
:100BDC0000BF02E000BF00E000BF6F4B1B78022B90
:100BEC002ED0022B36DC002B02D0012B14D031E09E
:100BFC00022000F007FD0346002B2ED0614B1B6832
:100C0C00614A13605F4B00221A60614B00221A602C
:100C1C00614B01221A7020E0022000F0F3FC034625
:100C2C00002B03D15C4B00221A7019E0022000F05B
:100C3C0003FD0346002B13D0574B02221A700FE012
:100C4C00022000F0DFFC0346002B0CD1524B00229B
:100C5C001A7008E000BF00F033BC00BF00F030BCDD
:100C6C0000BF00F02DBC00BF00F02ABC414B1B683C
:100C7C00184600F0FBFC404B1B68012B01D1FFF721
:100C8C00BDFA3D4B5B68012B14D13C4B1B685A1CC5
:100C9C003A490A60184600F04FFF384B1B68052B89
:100CAC0002DD364B00221A60354B1B6819460120B9
:100CBC0001F0C6F9304BDB68012B06D1314B1B68B8
:100CCC00314A13602F4B15221A60304B1B78022BC4
:100CDC0034D0022B3CDC002B02D0012B1AD037E095
:100CEC00002000F08FFC0346002B33D0254B1B68F3
:100CFC00254A1360234B0C221A60254B03221A60E1
:100D0C00244B1B681946032001F09AF91F4B012252
:100D1C001A701FE0002000F075FC0346002B03D175
:100D2C001A4B00221A7017E0002000F085FC0346D5
:100D3C00002B11D0154B02221A700DE0002000F090
:100D4C0061FC0346002B09D1104B00221A7005E000
:100D5C0000BF04E000BF02E000BF00E000BF0F4B8B
:100D6C001B78022B6BD0022B73DC002B18D0012BC1
:100D7C0051D06EE0D000002098000020C000002070
:100D8C0008000020C8000020CC000020E400002057
:100D9C00C400002010000020E6000020E500002028
:100DAC00012000F02FFC0346002B54D09B4B1B68FA
:100DBC0001339A4A13609A4B1B680133984A1360AB
:100DCC00984B1B68032B03D0964B1B68042B04D148
:100DDC00954B1B680133944A1360924B1B68012B93
:100DEC0003D0904B1B68022B04D1904B1B68013332
:100DFC008E4A13608E4B1B688E4A13608C4B1422E8
:100E0C001A608D4B1B681946032001F019F98B4BA6
:100E1C0001221A701FE0012000F0F4FB0346002BA6
:100E2C0003D1864B00221A7017E0012000F004FC5D
:100E3C000346002B11D0814B02221A700DE00120C9
:100E4C0000F0E0FB0346002B09D17C4B00221A700A
:100E5C0005E000BF34E300BF32E300BF30E300BF66
:100E6C002EE3704B1B68184600F000FC744B1B689B
:100E7C00012B01D1FFF7C2F9714B5B68012B14D127
:100E8C00704B1B685A1C6F490A60184600F054FEE0
:100E9C006C4B1B68052B02DD6A4B00221A606A4BF7
:100EAC001B681946012001F0CBF8654BDB68012B60
:100EBC0006D15F4B1B685F4A13605D4B15221A60AD
:100ECC00624B1B78022B34D0022B3CDC002B02D063
:100EDC00012B1AD037E0002000F094FB0346002BC6
:100EEC0033D0534B1B68534A1360514B0D221A607D
:100EFC00574B04221A60504B1B681946032001F013
:100F0C009FF8524B01221A701FE0002000F07AFB70
:100F1C000346002B03D14D4B00221A7017E0002022
:100F2C0000F08AFB0346002B11D0484B02221A70AA
:100F3C000DE0002000F066FB0346002B09D1434B6B
:100F4C0000221A7005E000BF04E000BF02E000BF01
:100F5C0000E000BF394B1B78022B4DD0022B55DC27
:100F6C00002B02D0012B33D050E0012000F04AFBC3
:100F7C000346002B4CD0374B1B680133354A1360AA
:100F8C00354B1B680133344A1360264B1B68022B0C
:100F9C0004D1254B1B680133234A1360214B1B687A
:100FAC00042B04D1214B1B680133204A1360204BC6
:100FBC001B68204A13601E4B14221A601E4B1B68C0
:100FCC001946032001F03CF81C4B01221A701FE05B
:100FDC00012000F017FB0346002B03D1174B002216
:100FEC001A7017E0012000F027FB0346002B11D0EC
:100FFC00124B02221A700DE0012000F003FB034695
:10100C00002B09D10D4B00221A7005E000BF57E2EE
:10101C0000BF55E200BF53E200BF51E23C0000208C
:10102C0040000020D0000020D4000020D800002078
:10103C00C8000020CC00002010000020E50000209B
:10104C0098000020C000002008000020E4000020D0
:10105C00C40000203000002038000020A24B1B6888
:10106C00184600F003FBA14B1B68012B01D1FFF7C5
:10107C00C5F89E4B5B68012B14D19D4B1B685A1C09
:10108C009B490A60184600F057FD994B1B68052BCD
:10109C0002DD974B00221A60964B1B681946012003
:1010AC0000F0CEFF914BDB68012B06D1924B1B68F5
:1010BC00924A1360904B15221A60914B1B78022BAD
:1010CC0034D0022B3CDC002B02D0012B1AD037E0A1
:1010DC00002000F097FA0346002B33D0864B1B6898
:1010EC00864A1360844B0A221A60864B01221A60CE
:1010FC00854B1B681946032000F0A2FF804B012290
:10110C001A701FE0002000F07DFA0346002B03D17B
:10111C007B4B00221A7017E0002000F08DFA03467A
:10112C00002B11D0764B02221A700DE0002000F03B
:10113C0069FA0346002B09D1714B00221A7005E0A5
:10114C0000BF04E000BF02E000BF00E000BF6F4B37
:10115C001B78022B4DD0022B55DC002B02D0012B1F
:10116C0033D050E0012000F04DFA0346002B4CD058
:10117C00674B1B680133664A1360664B1B6801336F
:10118C00644A1360584B1B68012B04D1624B1B68DB
:10119C000133614A1360544B1B68032B04D15F4B22
:1011AC001B6801335D4A1360534B1B68534A136031
:1011BC00514B14221A60544B1B681946032000F043
:1011CC003FFF524B01221A701FE0012000F01AFA67
:1011DC000346002B03D14D4B00221A7017E001205F
:1011EC0000F02AFA0346002B11D0484B02221A7049
:1011FC000DE0012000F006FA0346002B09D1434B09
:10120C0000221A7005E000BF5AE100BF58E100BF90
:10121C0056E100BF54E1344B1B68184600F026FA27
:10122C00324B1B68012B01D1FEF7E8FF2F4B5B689B
:10123C00012B14D12E4B1B685A1C2D490A601846E1
:10124C0000F07AFC2A4B1B68052B02DD284B002290
:10125C001A60284B1B681946012000F0F1FE234B45
:10126C00DB68012B08D1FFF7C7F8234B1B68234A17
:10127C001360214B15221A60244B1B78022B51D082
:10128C00022B65DC002B02D0012B12D060E0012078
:10129C0000F0B8F90346002B5CD0FFF70FF81A4B9F
:1012AC001B681946032000F0CBFE184B01221A7064
:1012BC0050E0012000F0A6F90346002B03D1134B9C
:1012CC0000221A7048E0012000F0B6F90346002B0A
:1012DC0042D0134B1B681946042000F0B1FE0B4B97
:1012EC0002221A7038E000BFD000002098000020C5
:1012FC00C000002008000020C8000020CC00002006
:10130C00E4000020C400002010000020E5000020B4
:10131C002C00002034000020D4000020D800002035
:10132C0004000020674B1B69012B07D1FEF7C6FF99
:10133C00654B1B681946042000F082FE012000F06A
:10134C0061F90346002B09D1604B00221A7005E0AD
:10135C0000BF04E000BF02E000BF00E000BF5C4B38
:10136C001B78022B2BD0022B33DC002B02D0012B51
:10137C0011D02EE0022000F045F90346002B2AD0B4
:10138C00544B1B68544A1360524B16221A60504B34
:10139C0001221A701FE0022000F034F90346002BE2
:1013AC0003D14B4B00221A7017E0022000F044F9D5
:1013BC000346002B11D0464B02221A700DE002207E
:1013CC0000F020F90346002B09D1414B00221A7082
:1013DC0005E000BF74E000BF72E000BF70E000BF2A
:1013EC006EE03E4B1B68184600F040F9354B1B680D
:1013FC00012B01D1FEF702FF324B5B68012B14D19C
:10140C00374B1B685A1C36490A60184600F094FB8F
:10141C00334B1B68052B02DD314B00221A60314B1C
:10142C001B681946012000F00BFE2A4B1B682A4A48
:10143C001360284B16221A6042E0284B1B68184692
:10144C0000F014F91F4B1B68012B01D1FEF7D6FEDF
:10145C001C4B5B68012B14D1214B1B685A1C204977
:10146C000A60184600F068FB1D4B1B68052B02DD5B
:10147C001B4B00221A601B4B1B681946012000F005
:10148C00DFFD104B9B68012B05D1174B1B681946D0
:10149C00022000F0D5FD104B1B68152B03D1FEF775
:1014AC00ABFFFEF7F7FF0C4B1B68142B03D1FFF7B8
:1014BC002FF8FEF7EFFF0D4B00221A6000E000BF83
:1014CC0000BF80BD9800002004000020E500002033
:1014DC00E6000020C8000020CC000020D000002036
:1014EC00C0000020080000200C000020C4000020D8
:1014FC0080B582B000AF78607B68022B17D07B6818
:10150C00022B1BDC7B68002B03D07B68012B07D0E4
:10151C0014E04FF400510C4801F0F6F803460EE0CD
:10152C004FF48041084801F0EFF8034607E04FF410
:10153C000041054801F0E8F8034600E00123184695
:10154C000837BD4680BD00BF0010014090B583B088
:10155C0000AF0023FB7142E0FA79FB792449895CE6
:10156C00244AD154FB79FC791846FFF7C1FF034696
:10157C001A461F4B1A55FB791D4AD25CFB791D4943
:10158C00CB5C9A4228D1FA79FB791949895C1A4AC1
:10159C00D154FB79184AD35C002B14D1FB79174A30
:1015AC0032F81330632B09D8FB79144A32F8132024
:1015BC00013291B2114A22F813100DE0FB79104A56
:1015CC000121D15408E0FB790C4A002122F81310B8
:1015DC00FB790B4A0021D154FB790133FB71FB7968
:1015EC00022BB9D900BF00BF0C37BD4690BD00BF60
:1015FC00EC000020F0000020E8000020F8000020A3
:10160C00F400002080B483B000AF78607B68022BBC
:10161C0001D9002308E0074A7B6813441B78002B90
:10162C000CBF01230023DBB218460C37BD4680BC2F
:10163C00704700BFE800002080B483B000AF786032
:10164C007B68022B01D9002308E0074A7B6813440E
:10165C001B78012B0CBF01230023DBB218460C377F
:10166C00BD4680BC704700BFF400002080B582B03E
:10167C0000AF78607B68042B00F2C78001A252F89F
:10168C0023F000BFA5160008EF1600083917000854
:10169C0083170008CD17000800224FF480615D48C5
:1016AC0001F049F800224FF400615A4801F043F868
:1016BC0000224FF48051574801F03DF800224FF4BE
:1016CC000051544801F037F800224FF48041514842
:1016DC0001F031F800224FF400414E4801F02BF894
:1016EC0094E000224FF480614A4801F024F8002273
:1016FC004FF40061474801F01EF801224FF480516D
:10170C00444801F018F801224FF40051414801F00F
:10171C0012F800224FF480413E4801F00CF80022F0
:10172C004FF400413B4801F006F86FE000224FF403
:10173C008061384800F0FFFF01224FF4006135480A
:10174C0000F0F9FF00224FF48051324800F0F3FF13
:10175C0001224FF400512F4800F0EDFF00224FF40E
:10176C0080412C4800F0E7FF00224FF4004129484B
:10177C0000F0E1FF4AE001224FF48061254800F0BF
:10178C00DAFF00224FF40061224800F0D4FF00225F
:10179C004FF480511F4800F0CEFF00224FF400514F
:1017AC001C4800F0C8FF00224FF48041194800F09B
:1017BC00C2FF01224FF40041164800F0BCFF25E0A7
:1017CC0001224FF48061134800F0B5FF00224FF462
:1017DC000061104800F0AFFF00224FF480510D481B
:1017EC0000F0A9FF00224FF400510A4800F0A3FFBB
:1017FC0001224FF48041074800F09DFF00224FF476
:10180C000041044800F097FF00E000BF00BF08371C
:10181C00BD4680BD000C014080B582B000AF786041
:10182C007B68092B00F2808101A252F823F000BFE3
:10183C0065180008AD180008F51800083D190008D7
:10184C0085190008CD190008151A00085D1A000842
:10185C00A51A0008ED1A000800220121B54800F075
:10186C006AFF00220221B34800F065FF0022042128
:10187C00B04800F060FF00220821AE4800F05BFF8A
:10188C0000221021AB4800F056FF00222021A9486D
:10189C0000F051FF01224021A64800F04CFF44E12A
:1018AC0001220121A34800F046FF00220221A14899
:1018BC0000F041FF002204219E4800F03CFF012271
:1018CC0008219C4800F037FF01221021994800F0B4
:1018DC0032FF01222021974800F02DFF01224021E8
:1018EC00944800F028FF20E100220121914800F0EB
:1018FC0022FF002202218F4800F01DFF012204214B
:10190C008C4800F018FF002208218A4800F013FFD1
:10191C0000221021874800F00EFF0122202185486B
:10192C0000F009FF00224021824800F004FFFCE097
:10193C00002201217F4800F0FEFE002202217D489A
:10194C0000F0F9FE002204217A4800F0F4FE002297
:10195C000821784800F0EFFE01221021754800F0B4
:10196C00EAFE01222021734800F0E5FE002240210E
:10197C00704800F0E0FED8E0012201216D4800F033
:10198C00DAFE002202216B4800F0D5FE0022042171
:10199C00684800F0D0FE01220821664800F0CBFE1A
:1019AC0001221021634800F0C6FE0022202161486C
:1019BC0000F0C1FE002240215E4800F0BCFEB4E005
:1019CC00002201215B4800F0B6FE01220221594899
:1019DC0000F0B1FE00220421564800F0ACFE0022BB
:1019EC000821544800F0A7FE01221021514800F0B4
:1019FC00A2FE002220214F4800F09DFE0022402133
:101A0C004C4800F098FE90E000220121494800F07B
:101A1C0092FE01220221474800F08DFE0022042193
:101A2C00444800F088FE00220821424800F083FE62
:101A3C00002210213F4800F07EFE002220213D486C
:101A4C0000F079FE002240213A4800F074FE6CE070
:101A5C0000220121374800F06EFE00220221354899
:101A6C0000F069FE00220421324800F064FE0122DD
:101A7C000821304800F05FFE012210212D4800F0B3
:101A8C005AFE012220212B4800F055FE0122402154
:101A9C00284800F050FE48E000220121254800F0C3
:101AAC004AFE00220221234800F045FE00220421B8
:101ABC00204800F040FE002208211E4800F03BFEAA
:101ACC00002210211B4800F036FE0022202119486C
:101ADC0000F031FE00224021164800F02CFE24E0DC
:101AEC0000220121134800F026FE00220221114899
:101AFC0000F021FE002204210E4800F01CFE002202
:101B0C0008210C4800F017FE01221021094800F0B2
:101B1C0012FE00222021074800F00DFE0022402179
:101B2C00044800F008FE00E000BF00BF0837BD46C7
:101B3C0080BD00BF000C014080B582B000AF786062
:101B4C00012202212F4800F0F6FD012204212D482C
:101B5C0000F0F1FD012208212A4800F0ECFD0122E1
:101B6C001021284800F0E7FD01222021254800F033
:101B7C00E2FD01224021234800F0DDFD224A7B6872
:101B8C0052F823301846FFF747FE7B68052B33D8F5
:101B9C0001A252F823F000BFBD1B0008C91B0008AE
:101BAC00D51B0008E11B0008ED1B0008F91B000801
:101BBC0000220221134800F0BEFD1EE00022042189
:101BCC00104800F0B8FD18E0002208210D4800F084
:101BDC00B2FD12E0002210210A4800F0ACFD0CE02E
:101BEC0000222021074800F0A6FD06E0002240213B
:101BFC00044800F0A0FD00E000BF00BF0837BD4660
:101C0C0080BD00BF000801401400002080B485B0E6
:101C1C0000AFF860B9607A60FB68244A82FB03125B
:101C2C009210DB17D31A224A1360F9681F4B83FBFF
:101C3C0001239A10CB17D21A13469B0013445B0056
:101C4C00CA1A1B4B5A60BB68184A82FB03129210CB
:101C5C00DB17D31A164A9360B968144B83FB012324
:101C6C009A10CB17D21A13469B0013445B00CA1A66
:101C7C000F4BDA607B680D4A82FB03129210DB1764
:101C8C00D31A0B4A13617968084B83FB01239A1012
:101C9C00CB17D21A13469B0013445B00CA1A044B91
:101CAC005A6100BF1437BD4680BC704767666666D4
:101CBC001400002080B500AF00F03CFA00F012F8E0
:101CCC0000F098F800F04AF8044801F091F9044B40
:101CDC0000221A60FEF784FCFCE700BF0001002024
:101CEC00C800002080B590B000AF07F1180328227F
:101CFC000021184601F02CFD3B1D00221A605A6091
:101D0C009A60DA601A610223BB610123BB62102363
:101D1C00FB6200237B6307F11803184600F03CFDBF
:101D2C000346002B01D000F0F7F80F237B60002353
:101D3C00BB600023FB6000233B6100237B613B1DE8
:101D4C000021184600F0A8FF0346002B01D000F03C
:101D5C00E3F800BF4037BD4680BD000080B586B0BB
:101D6C0000AF07F1080300221A605A609A60DA602B
:101D7C003B4600221A605A601D4B4FF080421A609D
:101D8C001B4B40F21F325A60194B00229A60184BC1
:101D9C000922DA60164B00221A61154B00229A6157
:101DAC00134801F0D5F80346002B01D000F0B4F82D
:101DBC004FF48053BB6007F1080319460C4801F03F
:101DCC0053FA0346002B01D000F0A6F800233B6029
:101DDC0000237B603B461946054801F02BFC03466B
:101DEC00002B01D000F098F800BF1837BD4680BD1D
:101DFC000001002080B588B000AF07F1100300226D
:101E0C001A605A609A60DA602F4B9B692E4A43F035
:101E1C00100393612C4B9B6903F01003FB60FB6870
:101E2C00294B9B69284A43F004039361264B9B6919
:101E3C0003F00403BB60BB68234B9B69224A43F04D
:101E4C0008039361204B9B6903F008037B607B685C
:101E5C00002248F27E011D4800F06DFC00224FF676
:101E6C007F411B4800F067FC4FF460433B6100234B
:101E7C007B610123BB6107F110031946154800F083
:101E8C00C9FA48F27E033B6101237B610023BB61ED
:101E9C000223FB6107F1100319460C4800F0BAFA53
:101EAC004FF67F433B6101237B610023BB6102231F
:101EBC00FB6107F110031946054800F0ABFA00BFAF
:101ECC002037BD4680BD00BF001002400008014015
:101EDC00000C01400010014080B582B000AF78606A
:101EEC007B681B68B3F1804F0FD100F0CDF8094B24
:101EFC001B68013B074A1360064B1B68002B04DC74
:101F0C00044B0A221A60FFF721FB00BF0837BD46BD
:101F1C0080BD00BF4400002080B400AF72B600BF8B
:101F2C00FEE7000080B485B000AF154B9B69144AE6
:101F3C0043F001039361124B9B6903F00103BB60F7
:101F4C00BB680F4BDB690E4A43F08053D3610C4BDB
:101F5C00DB6903F080537B607B680A4B5B68FB603A
:101F6C00FB6823F0E063FB60FB6843F08063FB607D
:101F7C00044AFB68536000BF1437BD4680BC7047F1
:101F8C00001002400000014080B584B000AF7860C2
:101F9C007B681B68B3F1804F13D10C4BDB690B4A88
:101FAC0043F00103D361094BDB6903F00103FB60D0
:101FBC00FB68002200211C2000F0F5F91C2000F029
:101FCC000EFA00BF1037BD4680BD00BF00100240A6
:101FDC0080B400AFFEE780B400AFFEE780B400AF82
:101FEC00FEE780B400AFFEE780B400AFFEE780B43C
:101FFC0000AF00BFBD4680BC704780B400AF00BFCF
:10200C00BD4680BC704780B400AF00BFBD4680BCED
:10201C00704780B500AF00F0D3F800BF80BD000062
:10202C0080B500AF024801F02FF800BF80BD00BFA3
:10203C000001002080B400AF00BFBD4680BC7047DB
:10204C0080B483B000AF786039607B68002B10DB04
:10205C007B68092B0DDC094B1B683A6892FBF3F289
:10206C0007497B6841F82320064A7B68002142F827
:10207C00231000BF0C37BD4680BC70470000002009
:10208C00700000209800002080B483B000AF0023C3
:10209C007B601CE0124A7B6852F82330002B13DD66
:1020AC000F4A7B6852F823305A1E0D497B6841F861
:1020BC0023200B4A7B6852F82330002B04DC094A9E
:1020CC007B68012142F823107B6801337B607B68BD
:1020DC00092BDFDD00BF00BF0C37BD4680BC70474D
:1020EC007000002098000020FFF7A4FF0B480C495B
:1020FC000C4A002302E0D458C4500433C4188C4258
:10210C00F9D3094A094C002301E013600432A242BE
:10211C00FBD301F0F9FAFFF7CDFD7047000000206A
:10212C0054000020C8370008540000204C01002047
:10213C00FEE7000080B500AF084B1B68074A43F070
:10214C0010031360032000F023F90F2000F008F8AF
:10215C00FFF7E8FE0023184680BD00BF00200240B8
:10216C0080B582B000AF7860124B1A68124B1B78A6
:10217C0019464FF47A73B3FBF1F3B2FBF3F3184641
:10218C0000F03BF90346002B01D001230EE07B68E5
:10219C000F2B0AD8002279684FF0FF3000F003F9BA
:1021AC00064A7B681360002300E0012318460837B9
:1021BC00BD4680BD48000020500000204C0000208F
:1021CC0080B400AF054B1B781A46054B1B681344B3
:1021DC00034A136000BFBD4680BC7047500000200E
:1021EC004801002080B400AF024B1B681846BD4666
:1021FC0080BC70474801002080B485B000AF786087
:10220C007B6803F00703FB600C4BDB68BB60BA68B0
:10221C004FF6FF031340BB60FB681A02BB68134305
:10222C0043F0BF6343F40033BB60044ABB68D36024
:10223C0000BF1437BD4680BC704700BF00ED00E006
:10224C0080B400AF044BDB681B0A03F0070318468D
:10225C00BD4680BC704700BF00ED00E080B483B089
:10226C0000AF0346FB7197F90730002B0BDBFB79B2
:10227C0003F01F02064997F907305B09012000FAA9
:10228C0002F241F8232000BF0C37BD4680BC7047DA
:10229C0000E100E080B483B000AF03463960FB710D
:1022AC0097F90730002B0ADB3B68DAB20C4997F937
:1022BC0007301201D2B20B4483F800230AE03B68CA
:1022CC00DAB20849FB7903F00F03043B1201D2B2D6
:1022DC000B441A7600BF0C37BD4680BC704700BF5C
:1022EC0000E100E000ED00E080B489B000AFF860E0
:1022FC00B9607A60FB6803F00703FB61FB69C3F10B
:10230C000703042B28BF0423BB61FB690433062B92
:10231C0002D9FB69033B00E000237B614FF0FF32E5
:10232C00BB6902FA03F3DA43BB681A407B699A4033
:10233C004FF0FF317B6901FA03F3D9437B680B4003
:10234C00134318462437BD4680BC704780B582B015
:10235C0000AF78607B68013BB3F1807F01D3012330
:10236C000FE00A4A7B68013B53600F214FF0FF30AE
:10237C00FFF790FF054B00229A60044B07221A606E
:10238C00002318460837BD4680BD00BF10E000E0B2
:10239C0080B582B000AF78607868FFF72DFF00BF82
:1023AC000837BD4680BD80B586B000AF0346B96026
:1023BC007A60FB7300237B61FFF742FF78617A68D8
:1023CC00B9687869FFF790FF024697F90F3011460C
:1023DC001846FFF75FFF00BF1837BD4680BD80B5BC
:1023EC0082B000AF0346FB7197F907301846FFF730
:1023FC0035FF00BF0837BD4680BD80B582B000AF49
:10240C0078607868FFF7A2FF034618460837BD4688
:10241C0080BD000080B48BB000AF786039600023C1
:10242C007B6200233B6248E101227B6A02FA03F3E0
:10243C00FB613B681B68FA691340BB61BA69FB69B5
:10244C009A4240F037813B685B68A34A93425ED066
:10245C00A14A934275D8A14A934258D09F4A9342BD
:10246C006FD89F4A934252D09D4A934269D89D4A55
:10247C0093424CD09B4A934263D89B4A934246D09A
:10248C00994A93425DD8122B2AD8122B59D801A203
:10249C0052F823F01B250008F52400080725000836
:1024AC00492500084F2500084F2500084F25000836
:1024BC004F2500084F2500084F2500084F25000820
:1024CC004F2500084F2500084F2500084F25000810
:1024DC004F2500084F250008FD2400081125000891
:1024EC00824A934213D02CE03B68DB683B6229E0C4
:1024FC003B68DB6804333B6224E03B68DB680833F1
:10250C003B621FE03B68DB680C333B621AE03B68C4
:10251C009B68002B02D104233B6213E03B689B6851
:10252C00012B05D108233B627B68FA691A6109E02B
:10253C0008233B627B68FA695A6103E000233B6223
:10254C0000E000BFBB69FF2B01D87B6801E07B6812
:10255C0004337B61BB69FF2B02D87B6A9B0002E0D2
:10256C007B6A083B9B003B617B691A680F213B69C6
:10257C0001FA03F3DB431A40396A3B6901FA03F3AE
:10258C001A437B691A603B685B6803F08053002B2D
:10259C0000F09080564B9B69554A43F001039361C0
:1025AC00534B9B6903F00103BB60BB68514A7B6AC8
:1025BC009B08023352F82330FB607B6A03F0030361
:1025CC009B000F2202FA03F3DB43FA681340FB6013
:1025DC007B68494A93420DD07B68484A934207D0A6
:1025EC007B68474A934201D1022304E0032302E0B3
:1025FC00012300E000237A6A02F003029200934068
:10260C00FA681343FB603B497B6A9B080233FA6808
:10261C0041F823203B685B6803F48013002B06D041
:10262C00384B9A683749BB6913438B6006E0354BCE
:10263C009A68BB69DB43334913408B603B685B682A
:10264C0003F40013002B06D02E4BDA682D49BB691E
:10265C001343CB6006E02B4BDA68BB69DB4329499B
:10266C001340CB603B685B6803F40033002B06D04F
:10267C00244B5A682349BB6913434B6006E0214B3A
:10268C005A68BB69DB431F4913404B603B685B686E
:10269C0003F48033002B06D01A4B1A681949BB6916
:1026AC0013430B6006E0174B1A68BB69DB431549F3
:1026BC0013400B607B6A01337B623B681A687B6A50
:1026CC0022FA03F3002B7FF4AFAE00BF00BF2C3710
:1026DC00BD4680BC704700BF0000321000003110B6
:1026EC000000221000002110000012100000111038
:1026FC00001002400000014000080140000C0140A5
:10270C00001001400004014080B485B000AF786037
:10271C000B467B807B689A687B881340002B02D029
:10272C000123FB7301E00023FB73FB7B184614377A
:10273C00BD4680BC704780B483B000AF78600B4658
:10274C007B8013467B707B78002B03D07A887B6868
:10275C001A6103E07B881A047B681A6100BF0C378E
:10276C00BD4680BC704780B485B000AF78600B4626
:10277C007B807B68DB68FB607A88FB6813401A04FB
:10278C00FB68D9437B880B401A437B681A6100BFF6
:10279C001437BD4680BC704780B586B000AF7860FA
:1027AC007B68002B01D101236CE27B681B6803F072
:1027BC000103002B00F08780924B5B6803F00C0345
:1027CC00042B0CD08F4B5B6803F00C03082B12D13D
:1027DC008C4B5B6803F48033B3F5803F0BD1894B92
:1027EC001B6803F40033002B6CD07B685B68002BF8
:1027FC0068D1012346E27B685B68B3F5803F06D164
:10280C00804B1B687F4A43F4803313602EE07B6857
:10281C005B68002B0CD17B4B1B687A4A23F480330A
:10282C001360784B1B68774A23F4802313601DE0F8
:10283C007B685B68B3F5A02F0CD1724B1B68714A97
:10284C0043F4802313606F4B1B686E4A43F4803350
:10285C0013600BE06B4B1B686A4A23F480331360E4
:10286C00684B1B68674A23F4802313607B685B68A2
:10287C00002B13D0FFF7B6FC386108E0FFF7B2FC71
:10288C0002463B69D31A642B01D90323FAE15D4B51
:10289C001B6803F40033002BF0D014E0FFF7A2FC0C
:1028AC00386108E0FFF79EFC02463B69D31A642BA3
:1028BC0001D90323E6E1534B1B6803F40033002BCF
:1028CC00F0D100E000BF7B681B6803F00203002B13
:1028DC0063D04C4B5B6803F00C03002B0BD0494BC3
:1028EC005B6803F00C03082B1CD1464B5B6803F4AC
:1028FC008033002B16D1434B1B6803F00203002BD3
:10290C0005D07B681B69012B01D00123BAE13D4B3B
:10291C001B6823F0F8027B685B69DB0039491343C1
:10292C000B603AE07B681B69002B20D0364B0122F0
:10293C001A60FFF757FC386108E0FFF753FC0246BA
:10294C003B69D31A022B01D903239BE12D4B1B6846
:10295C0003F00203002BF0D02A4B1B6823F0F80283
:10296C007B685B69DB00274913430B6015E0264B42
:10297C0000221A60FFF736FC386108E0FFF732FCE2
:10298C0002463B69D31A022B01D903237AE11D4B72
:10299C001B6803F00203002BF0D17B681B6803F06B
:1029AC000803002B3AD07B689B69002B19D0174B7E
:1029BC0001221A60FFF716FC386108E0FFF712FCE1
:1029CC0002463B69D31A022B01D903235AE10D4B62
:1029DC005B6A03F00203002BF0D0012000F09AFA9E
:1029EC001CE00A4B00221A60FFF7FCFB38610FE079
:1029FC00FFF7F8FB02463B69D31A022B08D90323D5
:102A0C0040E100BF001002400000424280044242FC
:102A1C009E4B5B6A03F00203002BE9D17B681B68B9
:102A2C0003F00403002B00F0A6800023FB75974BEA
:102A3C00DB6903F08053002B0DD1944BDB69934A77
:102A4C0043F08053D361914BDB6903F08053BB603F
:102A5C00BB680123FB758E4B1B6803F48073002B42
:102A6C0018D18B4B1B688A4A43F480731360FFF7B1
:102A7C00B9FB386108E0FFF7B5FB02463B69D31A96
:102A8C00642B01D90323FDE0814B1B6803F4807395
:102A9C00002BF0D07B68DB68012B06D17B4B1B6ACB
:102AAC007A4A43F0010313622DE07B68DB68002B4C
:102ABC000CD1764B1B6A754A23F001031362734BDE
:102ACC001B6A724A23F0040313621CE07B68DB6808
:102ADC00052B0CD16D4B1B6A6C4A43F0040313623B
:102AEC006A4B1B6A694A43F0010313620BE0674BA4
:102AFC001B6A664A23F001031362644B1B6A634A28
:102B0C0023F0040313627B68DB68002B15D0FFF7FE
:102B1C0069FB38610AE0FFF765FB02463B69D31A93
:102B2C0041F28832934201D90323ABE0574B1B6A25
:102B3C0003F00203002BEED014E0FFF753FB3861D7
:102B4C000AE0FFF74FFB02463B69D31A41F2883289
:102B5C00934201D9032395E04C4B1B6A03F002030B
:102B6C00002BEED1FB7D012B05D1484BDB69474A8D
:102B7C0023F08053D3617B68DB69002B00F08180EC
:102B8C00424B5B6803F00C03082B61D07B68DB695C
:102B9C00022B46D13F4B00221A60FFF723FB386112
:102BAC0008E0FFF71FFB02463B69D31A022B01D941
:102BBC00032367E0354B1B6803F00073002BF0D147
:102BCC007B681B6AB3F5803F08D1304B5B6823F4FC
:102BDC0000327B689B682D4913434B602B4B5B6821
:102BEC0023F474127B68196A7B685B6A0B43274970
:102BFC0013434B60274B01221A60FFF7F3FA38613D
:102C0C0008E0FFF7EFFA02463B69D31A022B01D911
:102C1C00032337E01D4B1B6803F00073002BF0D02F
:102C2C002FE01C4B00221A60FFF7DCFA386108E039
:102C3C00FFF7D8FA02463B69D31A022B01D90323BA
:102C4C0020E0124B1B6803F00073002BF0D118E04E
:102C5C007B68DB69012B01D1012313E00B4B5B6813
:102C6C00FB60FB6803F480327B681B6A9A4206D1D6
:102C7C00FB6803F470127B685B6A9A4201D00123F3
:102C8C0000E0002318461837BD4680BD00100240F6
:102C9C00007000406000424280B584B000AF7860A4
:102CAC0039607B68002B01D10123D0E06A4B1B6893
:102CBC0003F007033A689A4210D9674B1B6823F05C
:102CCC00070265493B6813430B60634B1B6803F0B9
:102CDC0007033A689A4201D00123B8E07B681B686D
:102CEC0003F00203002B20D07B681B6803F0040365
:102CFC00002B05D0594B5B68584A43F4E063536092
:102D0C007B681B6803F00803002B05D0534B5B68F2
:102D1C00524A43F460535360504B5B6823F0F0020B
:102D2C007B689B684D4913434B607B681B6803F0C1
:102D3C000103002B40D07B685B68012B07D1474B0C
:102D4C001B6803F40033002B15D101237FE07B6853
:102D5C005B68022B07D1414B1B6803F00073002BFF
:102D6C0009D1012373E03D4B1B6803F00203002BD8
:102D7C0001D101236BE0394B5B6823F003027B68C4
:102D8C005B68364913434B60FFF72CFAF8600AE096
:102D9C00FFF728FA0246FB68D31A41F288329342B5
:102DAC0001D9032353E02D4B5B6803F00C027B68C5
:102DBC005B689B009A42EBD1274B1B6803F007031F
:102DCC003A689A4210D2244B1B6823F0070222491E
:102DDC003B6813430B60204B1B6803F007033A68F6
:102DEC009A4201D0012332E07B681B6803F0040394
:102DFC00002B08D0194B5B6823F4E0627B68DB681E
:102E0C00164913434B607B681B6803F00803002BC7
:102E1C0009D0124B5B6823F460527B681B69DB00A2
:102E2C000E4913434B6000F021F802460B4B5B68D4
:102E3C001B0903F00F030A49CB5C22FA03F3094A7E
:102E4C001360094B1B681846FFF78AF900231846D4
:102E5C001037BD4680BD00BF00200240001002406C
:102E6C009C370008480000204C00002080B487B03C
:102E7C0000AF0023FB600023BB6000237B610023B9
:102E8C007B6000233B611E4B5B68FB60FB6803F0BF
:102E9C000C03042B02D0082B03D027E0194B3B6109
:102EAC0027E0FB689B0C03F00F03174AD35C7B6095
:102EBC00FB6803F48033002B10D0114B5B685B0C68
:102ECC0003F00103114AD35CBB607B680D4A02FB23
:102EDC0003F2BB68B2FBF3F37B6104E07B680C4A42
:102EEC0002FB03F37B617B693B6102E0054B3B61B9
:102EFC0000BF3B6918461C37BD4680BC704700BFFD
:102F0C000010024000127A00AC370008BC370008F1
:102F1C0000093D0080B485B000AF78600A4B1B6897
:102F2C000A4AA2FB03235B0A7A6802FB03F3FB60E9
:102F3C0000BFFB685A1EFA60002BF9D100BF00BF1E
:102F4C001437BD4680BC704748000020D34D62103A
:102F5C0080B582B000AF78607B68002B01D1012373
:102F6C0041E07B6893F83D30DBB2002B06D17B68E7
:102F7C00002283F83C207868FFF706F87B68022271
:102F8C0083F83D207B681A687B6804331946104629
:102F9C0000F056FA7B68012283F846207B680122F8
:102FAC0083F83E207B68012283F83F207B68012256
:102FBC0083F840207B68012283F841207B68012242
:102FCC0083F842207B68012283F843207B6801222E
:102FDC0083F844207B68012283F845207B6801221A
:102FEC0083F83D20002318460837BD4680BD0000FD
:102FFC0080B485B000AF78607B6893F83D30DBB26D
:10300C00012B01D0012335E07B68022283F83D209F
:10301C007B681B68DA687B681B6842F00102DA6027
:10302C007B681B68164A934209D07B681B68B3F116
:10303C00804F04D07B681B68124A934211D17B6885
:10304C001B689B6803F00703FB60FB68062B10D022
:10305C007B681B681A687B681B6842F001021A6067
:10306C0007E07B681B681A687B681B6842F00102EA
:10307C001A60002318461437BD4680BC704700BF49
:10308C00002C01400004004080B584B000AF786093
:10309C007B681B68DB68FB607B681B681B69BB601B
:1030AC00BB6803F00203002B20D0FB6803F0020383
:1030BC00002B1BD07B681B686FF002021A617B68C7
:1030CC0001221A777B681B689B6903F00303002BB2
:1030DC0003D0786800F098F905E0786800F08BF977
:1030EC00786800F09AF97B6800221A77BB6803F0C5
:1030FC000403002B20D0FB6803F00403002B1BD02F
:10310C007B681B686FF004021A617B6802221A77D5
:10311C007B681B689B6903F44073002B03D07868B1
:10312C0000F072F905E0786800F065F9786800F055
:10313C0074F97B6800221A77BB6803F00803002B34
:10314C0020D0FB6803F00803002B1BD07B681B68A6
:10315C006FF008021A617B6804221A777B681B687F
:10316C00DB6903F00303002B03D0786800F04CF903
:10317C0005E0786800F03FF9786800F04EF97B685C
:10318C0000221A77BB6803F01003002B20D0FB68D9
:10319C0003F01003002B1BD07B681B686FF0100230
:1031AC001A617B6808221A777B681B68DB6903F459
:1031BC004073002B03D0786800F026F905E078689E
:1031CC0000F019F9786800F028F97B6800221A776A
:1031DC00BB6803F00103002B0CD0FB6803F0010368
:1031EC00002B07D07B681B686FF001021A617868AE
:1031FC00FEF772FEBB6803F08003002B0CD0FB685B
:10320C0003F08003002B07D07B681B686FF08002F3
:10321C001A61786800F06FFABB6803F04003002B6A
:10322C000CD0FB6803F04003002B07D07B681B68B5
:10323C006FF040021A61786800F0F8F8BB6803F090
:10324C002003002B0CD0FB6803F02003002B07D0CD
:10325C007B681B686FF020021A61786800F042FAF4
:10326C0000BF1037BD4680BD80B584B000AF78601C
:10327C0039600023FB737B6893F83C30012B01D140
:10328C000223B4E07B68012283F83C207B68022295
:10329C0083F83D207B681B689B68BB60BB6823F090
:1032AC007703BB60BB6823F47F43BB607B681B6800
:1032BC00BA689A603B681B68B3F5005F3ED0B3F503
:1032CC00005F00F28780B3F5805F00F08680B3F575
:1032DC00805F7FD8702B1AD0702B7BD8602B50D08E
:1032EC00602B77D8502B3CD0502B73D8402B58D018
:1032FC00402B6FD8302B64D0302B6BD8202B60D068
:10330C00202B67D8002B5CD0102B5AD062E07B6846
:10331C0018683B6899683B685A683B68DB6800F042
:10332C006AF97B681B689B68BB60BB6843F07703DA
:10333C00BB607B681B68BA689A604FE07B68186852
:10334C003B6899683B685A683B68DB6800F053F946
:10335C007B681B689A687B681B6842F480429A60A1
:10336C003CE07B6818683B6859683B68DB681A4628
:10337C0000F0CAF87B681B685021184600F021F950
:10338C002CE07B6818683B6859683B68DB681A4618
:10339C0000F0E8F87B681B686021184600F011F912
:1033AC001CE07B6818683B6859683B68DB681A4608
:1033BC0000F0AAF87B681B684021184600F001F960
:1033CC000CE07B681A683B681B681946104600F0D5
:1033DC00F8F803E00123FB7300E000BF7B680122D7
:1033EC0083F83D207B68002283F83C20FB7B184649
:1033FC001037BD4680BD80B483B000AF786000BF8D
:10340C000C37BD4680BC704780B483B000AF786089
:10341C0000BF0C37BD4680BC704780B483B000AF92
:10342C00786000BF0C37BD4680BC704780B483B059
:10343C0000AF786000BF0C37BD4680BC7047000001
:10344C0080B485B000AF786039607B681B68FB6026
:10345C007B682B4A934207D07B68B3F1804F03D033
:10346C007B68284A934208D1FB6823F07003FB6009
:10347C003B685B68FA681343FB607B68204A9342A5
:10348C0007D07B68B3F1804F03D07B681D4A934211
:10349C0008D1FB6823F44073FB603B68DB68FA6877
:1034AC001343FB60FB6823F080023B685B691343AA
:1034BC00FB607B68FA681A603B689A687B68DA6222
:1034CC003B681A687B689A627B680D4A934203D109
:1034DC003B681A697B681A637B6801225A617B68B6
:1034EC001B6903F00103002B05D07B681B6923F0DB
:1034FC0001027B681A6100BF1437BD4680BC70475F
:10350C00002C01400004004080B487B000AFF8608C
:10351C00B9607A60FB681B6A7B61FB681B6A23F0ED
:10352C000102FB681A62FB689B693B613B6923F0F3
:10353C00F0033B617B681B013A6913433B617B6978
:10354C0023F00A037B617A69BB6813437B61FB68D8
:10355C003A699A61FB687A691A6200BF1C37BD46EA
:10356C0080BC704780B487B000AFF860B9607A60F7
:10357C00FB681B6A7B61FB681B6A23F01002FB680B
:10358C001A62FB689B693B613B6923F470433B61A6
:10359C007B681B033A6913433B617B6923F0A003EF
:1035AC007B61BB681B017A6913437B61FB683A69D9
:1035BC009A61FB687A691A6200BF1C37BD4680BCF1
:1035CC00704780B485B000AF786039607B689B68C9
:1035DC00FB60FB6823F07003FB603A68FB681343E5
:1035EC0043F00703FB607B68FA689A6000BF1437EE
:1035FC00BD4680BC704780B487B000AFF860B9603E
:10360C007A603B60FB689B687B617B6923F47F433A
:10361C007B613B681A027B681A43BB6813437A6967
:10362C0013437B61FB687A699A6000BF1C37BD4607
:10363C0080BC704780B485B000AF786039607B681F
:10364C0093F83C30012B01D1022341E07B6801222D
:10365C0083F83C207B68022283F83D207B681B6842
:10366C005B68FB607B681B689B68BB60FB6823F036
:10367C007003FB603B681B68FA681343FB607B6854
:10368C001B68FA685A607B681B68144A934209D01D
:10369C007B681B68B3F1804F04D07B681B68104AB1
:1036AC0093420CD1BB6823F08003BB603B685B6822
:1036BC00BA681343BB607B681B68BA689A607B6806
:1036CC00012283F83D207B68002283F83C200023F4
:1036DC0018461437BD4680BC704700BF002C014013
:1036EC000004004080B483B000AF786000BF0C379A
:1036FC00BD4680BC704780B483B000AF786000BF1B
:10370C000C37BD4680BC704770B500260C4D0D4C77
:10371C00641BA410A64209D100F022F800260A4D21
:10372C000A4C641BA410A64205D170BD55F8043B8D
:10373C0098470136EEE755F8043B98470136F2E717
:10374C00C0370008C0370008C0370008C43700086D
:10375C0003460244934200D1704703F8011BF9E77A
:10376C00F8B500BFF8BC08BC9E467047F8B500BF62
:08377C00F8BC08BC9E46704732
:103784000500000002000000030000000500000026
:103794000200000003000000000000000000000020
:1037A40001020304060708090203040506070809C1
:0C37B4000A0B0C0D0E0F1010010200009B
:0437C00031010008CB
:0437C4000D010008EB
:1037C80001000000FA00000005000000F4010000FC
:1037D8008813000001000000020000000300000040
:1037E80004000000050000000600000003000000BF
:1037F80002000000030000000200000005000000B5
:10380800050000000A00000000127A001000000005
:0438180001000000AB
:04000005080020F5DA
:00000001FF
