:020000040800F2
:1000000000280020C9200008B11F0008B71F000801
:10001000BD1F0008C31F0008C91F00080000000022
:10002000000000000000000000000000CF1F0008DA
:10003000DB1F000800000000E71F0008F31F000896
:1000400011210008112100081121000811210008C8
:1000500011210008112100081121000811210008B8
:1000600011210008112100081121000811210008A8
:100070001121000811210008112100081121000898
:100080001121000811210008112100081121000888
:100090001121000811210008112100081121000878
:1000A0001121000811210008112100081121000868
:1000B00001200008112100080000000011210008A3
:1000C00011210008000000000000000011210008BC
:1000D00000000000112100081121000800000000AC
:1000E0001121000811210008112100080000000062
:1000F0000000000000000000000000000000000000
:0C01000000000000000000005FF808F1A3
:10010C0010B5054C237833B9044B13B10448AFF345
:10011C0000800123237010BD54000020000000005B
:10012C004037000808B5034B1BB103490348AFF334
:10013C00008008BD00000000580000204037000877
:10014C0080B500AF274B1B78022B38D0022B40DC3C
:10015C00002B02D0012B1ED03BE0002001F03CFA1A
:10016C000346002B37D0204B1B68204A13601E4BD4
:10017C001B681F4A13601C4B0A221A601D4B01227C
:10018C001A601D4B1B681946032001F043FF154BE9
:10019C0001221A701FE0002001F01EFA0346002B0A
:1001AC0003D1104B00221A7017E0002001F02EFA38
:1001BC000346002B11D00B4B02221A700DE00020CD
:1001CC0001F00AFA0346002B09D1064B00221A70E3
:1001DC0005E000BF04E000BF02E000BF00E000BF8C
:1001EC0000BF80BDE4000020C8000020CC0000202F
:1001FC00D0000020C40000201000002080B500AF0B
:10020C002B4B1B68013B032B4ED801A252F823F059
:10021C002D0200084F02000871020008930200082A
:10022C004FF48051234802F088FA4FF400512148D2
:10023C0002F083FA204B1B681946002001F0EAFEFD
:10024C0033E04FF400611B4802F077FA4FF4005191
:10025C00184802F072FA184B1B681946002001F07E
:10026C00D9FE22E04FF48061124802F066FA4FF496
:10027C000041104802F061FA0F4B1B681946002030
:10028C0001F0C8FE11E04FF480610A4802F055FA03
:10029C004FF48041074802F050FA074B1B6819468F
:1002AC00002001F0B7FE00E000BF00BF80BD00BF22
:1002BC00D0000020000C01400400002080B400AFEE
:1002CC003D4B1B68042B4CD0042B69DC022B02D059
:1002DC00032B27D064E0394B1B68032B03D0374B1F
:1002EC001B68042B0AD1364B1B68622B03DC344B86
:1002FC001B68013300E00123314A13602F4B1B684C
:10030C00012B03D02D4B1B68022B4BD12D4B1B68A3
:10031C00622B03DC2B4B1B68013300E00123294AC1
:10032C0013603FE0254B1B68022B0AD1244B1B6842
:10033C00622B03DC224B1B68013300E00123204AB3
:10034C0013601E4B1B68042B2ED11E4B1B68622B9B
:10035C0003DC1C4B1B68013300E00123194A1360BA
:10036C0022E0164B1B68012B0AD1154B1B68622B24
:10037C0003DC134B1B68013300E00123104A1360AC
:10038C000E4B1B68032B11D10E4B1B68622B03DC2D
:10039C000C4B1B68013300E001230A4A136005E093
:1003AC0000BF04E000BF02E000BF00E000BF00BFE0
:1003BC00BD4680BC704700BFC4000020D0000020A8
:1003CC00D4000020D800002080B400AF344B1B6850
:1003DC00042B40D0042B57DC022B02D0032B21D052
:1003EC0052E0304B1B68032B03D02E4B1B68042BA5
:1003FC0007D12D4B1B682D4A13602B4B1B682C4AC5
:10040C001360284B1B68012B03D0264B1B68022B57
:10041C003CD1284B1B68254A1360264B1B68244A89
:10042C00136033E01F4B1B68022B07D11E4B1B685C
:10043C00214A13601C4B1B68204A1360194B1B6824
:10044C00042B25D11B4B1B681B4A1360194B1B68D3
:10045C001A4A13601CE0134B1B68012B07D1124B7B
:10046C001B68174A1360104B1B68164A13600D4B20
:10047C001B68032B0ED10C4B1B68114A13600A4BE3
:10048C001B68104A136005E000BF04E000BF02E0E7
:10049C0000BF00E000BF00BFBD4680BC704700BF7E
:1004AC00C4000020D0000020D40000203C0000201C
:1004BC0040000020D8000020300000203800002030
:1004CC002C0000203400002080B400AF1A4B1B68B5
:1004DC00013B032B2AD801A252F823F0F90400089F
:1004EC00090500081905000829050008134B1B68AD
:1004FC00134A1360114B01221A6018E00F4B1B6852
:10050C000F4A13600D4B02221A6010E00B4B1B6854
:10051C000B4A1360094B03221A6008E0074B1B6857
:10052C00074A1360054B04221A6000E000BF00BFAD
:10053C00BD4680BC704700BFD0000020C800002022
:10054C00CC00002080B400AF2A4B1B68042B30D0A9
:10055C00042B43DC022B02D0032B15D03EE0264BA0
:10056C001A68264B1B689A423AD0234B1A68244BC4
:10057C001B68D31A234A1360234B1A68234B1B683E
:10058C00D31A234A13602BE01D4B1A681B4B1B68B4
:10059C009A4227D01A4B1A681A4B1B681344164AF6
:1005AC0013601A4B1A681A4B1B681344164A1360D3
:1005BC0018E0144B1A68114B1B689A4214D0104B5C
:1005CC001A68104B1B6813440B4A13600F4B1A68C4
:1005DC000F4B1B6813440C4A136005E000BF04E08A
:1005EC0000BF02E000BF00E000BF00BFBD4680BC02
:1005FC00704700BFC40000203C000020DC0000203D
:10060C00300000202C00002040000020380000208A
:10061C003400002080B500AF954B1B68954A1168DB
:10062C00954A1268184601F0DBFA944B1B68162B9E
:10063C0000F22D8701A252F823F000BFA506000896
:10064C0029070008CF070008E108000887090008FF
:10065C009B1400089B1400089B1400089B140008B2
:10066C009B140008350A0008010C0008090E00084C
:10067C00C70F00089B1400089B1400089B1400086B
:10068C009B1400089B1400089B140008BB11000865
:10069C00B113000809140008002000F0D1FF784BBA
:1006AC001B680A2B17D1774B1B68774A1360774B63
:1006BC001B68774A1360774B1B68774A1360774B3C
:1006CC001B68774A1360774B1B68774A1360774B2C
:1006DC001B68774A1360694B1B68694A1360674B48
:1006EC0001221A606C4B1B68614A13606C4B1B68CF
:1006FC00604A13606F4B1B681946002001F08AFC9E
:10070C006D4B1B681946012001F084FC6B4B1B6878
:10071C001946022001F07EFC00F0BABE012000F068
:10072C008FFF674B5B68012B14D1664B1B685A1CFF
:10073C0064490A60184601F0E9F9624B1B68052B05
:10074C0002DD604B00221A605B4B1B6819460120CE
:10075C0001F060FC5A4B9B68012B2ED1444B1B685B
:10076C00013B434A1360434B1B68013B414A1360F6
:10077C003F4B1B68544A13603E4B1B68534A136033
:10078C003B4B1B68002B03DD3A4B1B68002B0EDC2C
:10079C003A4B1B684E4A1360384B1B68384A13603F
:1007AC00364B02221A603A4B1B68314A1360434B9A
:1007BC001B681946022001F02DFCFFF7C1FC00F06C
:1007CC0067BE022000F03CFF3D4B5B68012B14D14F
:1007DC003C4B1B685A1C3B490A60184601F096F9C1
:1007EC00384B1B68052B02DD364B00221A60324B4E
:1007FC001B681946012001F00DFC314B9B68012B45
:10080C0032D11B4B1B68013B194A1360194B1B68F7
:10081C00013B184A1360164B1B682B4A1360154B8F
:10082C001B682A4A1360124B1B68002B03DD114B0B
:10083C001B68002B12DC114B1B68254A13600F4BF5
:10084C001B680F4A13600D4B03221A600E4B1B687A
:10085C00074A1360164B1B68064A1360174B1B683C
:10086C001946022001F0D6FBFFF76AFC00F010BE1F
:10087C00D4000020D8000020C4000020C8000020B4
:10088C00CC000020583700083C0000205C370008E2
:10089C0030000020603700082C000020643700086E
:1008AC004000002068370008380000206C37000832
:1008BC003400002004000020080000200C00002060
:1008CC0098000020C0000020DC000020E000002088
:1008DC00D0000020032000F0B3FE954B5B68012B89
:1008EC0014D1944B1B685A1C92490A60184601F0AB
:1008FC000DF9904B1B68052B02DD8E4B00221A6004
:10090C008D4B1B681946012001F084FB884B9B68BA
:10091C00012B2ED1894B1B68013B884A1360884BF5
:10092C001B68013B864A1360844B1B68854A136025
:10093C00834B1B68844A1360804B1B68002B03DDC0
:10094C007F4B1B68002B0EDC804B1B68804A1360AE
:10095C007E4B1B687F4A13607C4B04221A607E4BD3
:10096C001B68774A13607D4B1B681946022001F007
:10097C0051FBFFF7E5FB00F08BBD042000F060FE9F
:10098C006B4B5B68012B14D16A4B1B685A1C694971
:10099C000A60184601F0BAF8664B1B68052B02DD9D
:1009AC00644B00221A60644B1B681946012001F04D
:1009BC0031FB5F4B9B68012B32D1604B1B68013BB9
:1009CC005E4A13605E4B1B68013B5D4A13605B4BD8
:1009DC001B685C4A13605A4B1B685B4A1360574B8D
:1009EC001B68002B03DD564B1B68002B12DC574B8E
:1009FC001B68574A1360554B1B68564A1360534B80
:100A0C0001221A60564B1B684C4A1360554B1B68ED
:100A1C004B4A1360514B1B681946022001F0FAFA3D
:100A2C00FFF78EFB00F034BD494B1B68184600F0F5
:100A3C0007FE3F4B1B68012B01D1FFF7DFFB3C4B43
:100A4C005B68012B14D13B4B1B685A1C39490A605B
:100A5C00184601F05BF8374B1B68052B02DD354B54
:100A6C0000221A60344B1B681946012001F0D2FA9F
:100A7C002F4BDB68012B06D1344B1B68354A1360B6
:100A8C00324B15221A60384B1B78022B34D0022BB8
:100A9C003CDC002B02D0012B1AD037E0002000F0F8
:100AAC009BFD0346002B33D0284B1B68294A13604F
:100ABC00264B0B221A602D4B02221A602C4B1B6802
:100ACC001946032001F0A6FA274B01221A701FE0E9
:100ADC00002000F081FD0346002B03D1224B0022A5
:100AEC001A7017E0002000F091FD0346002B11D086
:100AFC001D4B02221A700DE0002000F06DFD034624
:100B0C00002B09D1184B00221A7005E000BF04E03D
:100B1C0000BF02E000BF00E000BF164B1B78022BA9
:100B2C0052D0022B5ADC002B26D0012B38D055E0AA
:100B3C0098000020C000002008000020D4000020F5
:100B4C00D8000020DC000020E0000020C8000020BD
:100B5C00D0000020CC000020380000200C00002029
:100B6C002C00002040000020E4000020C4000020E5
:100B7C0010000020E6000020022000F02DFD0346AE
:100B8C00002B2ED08F4B1B688F4A13608D4B00228D
:100B9C001A608E4B00221A608D4B01221A7020E0D5
:100BAC00022000F019FD0346002B03D1884B0022D4
:100BBC001A7019E0022000F029FD0346002B13D017
:100BCC00834B02221A700FE0022000F005FD034651
:100BDC00002B0CD17E4B00221A7008E000BF00F0F5
:100BEC0057BC00BF00F054BC00BF00F051BC00BFAC
:100BFC0000F04EBC774B1B68184600F021FD764B7D
:100C0C001B68012B01D1FFF7F9FA734B5B68012BC1
:100C1C0014D1724B1B685A1C70490A60184600F0BC
:100C2C0075FF6E4B1B68052B02DD6C4B00221A60A6
:100C3C006B4B1B681946012001F0ECF9664BDB6825
:100C4C00012B06D15F4B1B685F4A13605D4B15226D
:100C5C001A60644B1B78022B34D0022B3CDC002B2B
:100C6C0002D0012B1AD037E0002000F0B5FC03466F
:100C7C00002B33D0534B1B68534A1360514B0C223F
:100C8C001A60524B03221A60574B1B6819460320FB
:100C9C0001F0C0F9534B01221A701FE0002000F044
:100CAC009BFC0346002B03D14E4B00221A7017E01D
:100CBC00002000F0ABFC0346002B11D0494B022264
:100CCC001A700DE0002000F087FC0346002B09D1C0
:100CDC00444B00221A7005E000BF04E000BF02E0A4
:100CEC0000BF00E000BF414B1B78022B57D0022BFA
:100CFC005FDC002B02D0012B3DD05AE0012000F02C
:100D0C006BFC0346002B56D0324B1B68032B03D0D5
:100D1C00304B1B68042B0AD1354B1B68622B03DC50
:100D2C00334B1B68013300E00123314A1360294B1C
:100D3C001B68012B03D0274B1B68022B0AD12D4BB0
:100D4C001B68622B03DC2B4B1B68013300E0012377
:100D5C00284A13601B4B1B681B4A1360194B142247
:100D6C001A60254B1B681946042001F053F91F4BE0
:100D7C0001221A701FE0012000F02EFC0346002B0C
:100D8C0003D11A4B00221A7017E0012000F03EFC30
:100D9C000346002B11D0154B02221A700DE00120D6
:100DAC0000F01AFC0346002B09D1104B00221A70DC
:100DBC0005E000BF6CE300BF6AE300BF68E300BF5F
:100DCC0066E300BFC8000020CC000020C400002057
:100DDC00E6000020D000002098000020C000002079
:100DEC0008000020E400002010000020E500002096
:100DFC00D4000020D800002004000020A84B1B6861
:100E0C00184600F01DFCA74B1B68012B01D1FFF706
:100E1C00F5F9A44B5B68012B14D1A34B1B685A1C2E
:100E2C00A1490A60184600F071FE9F4B1B68052B08
:100E3C0002DD9D4B00221A609C4B1B681946012059
:100E4C0001F0E8F8974BDB68012B06D1984B1B6837
:100E5C00984A1360964B15221A60974B1B78022BFD
:100E6C0034D0022B3CDC002B02D0012B1AD037E003
:100E7C00002000F0B1FB0346002B33D08C4B1B68D9
:100E8C008C4A13608A4B0D221A608C4B04221A6018
:100E9C008B4B1B681946032001F0BCF8864B0122D2
:100EAC001A701FE0002000F097FB0346002B03D1C3
:100EBC00814B00221A7017E0002000F0A7FB0346BC
:100ECC00002B11D07C4B02221A700DE0002000F098
:100EDC0083FB0346002B09D1774B00221A7005E0E7
:100EEC0000BF04E000BF02E000BF00E000BF754B94
:100EFC001B78022B4FD0022B57DC002B02D0012B7E
:100F0C0035D052E0012000F067FB0346002B4ED099
:100F1C00634B1B68022B0AD16B4B1B68622B03DCE7
:100F2C00694B1B68013300E00123674A13605C4B7B
:100F3C001B68042B0AD1654B1B68622B03DC634BCB
:100F4C001B68013300E00123604A1360584B1B6897
:100F5C00584A1360564B14221A605D4B1B68194695
:100F6C00042001F057F8574B01221A701FE00120A2
:100F7C0000F032FB0346002B03D1524B00221A70B7
:100F8C0017E0012000F042FB0346002B11D04D4B23
:100F9C0002221A700DE0012000F01EFB0346002B0C
:100FAC0009D1484B00221A7005E000BF70E200BF67
:100FBC006EE200BF6CE200BF6AE2394B1B68184658
:100FCC0000F03EFB374B1B68012B01D1FFF716F9E4
:100FDC00344B5B68012B14D1334B1B685A1C3249C0
:100FEC000A60184600F092FD2F4B1B68052B02DDA2
:100FFC002D4B00221A602D4B1B681946012001F065
:10100C0009F8284BDB68012B06D1294B1B68294AB0
:10101C001360274B15221A60274B1B78022B34D0F8
:10102C00022B57DC002B02D0012B1AD052E00020EF
:10103C0000F0D2FA0346002B4ED01D4B1B681D4A04
:10104C0013601B4B0A221A601C4B01221A601C4BAA
:10105C001B681946032000F0DDFF174B01221A70A4
:10106C003AE0002000F0B8FA0346002B03D1124BF3
:10107C0000221A7032E0002000F0C8FA0346002B60
:10108C002CD00D4B02221A7028E0002000F0A4FA9C
:10109C000346002B24D1084B00221A7020E000BF1D
:1010AC00D000002098000020C00000200800002084
:1010BC00C8000020CC000020E4000020C400002068
:1010CC0010000020E5000020D4000020D8000020F3
:1010DC000400002000BF04E000BF02E000BF00E0FD
:1010EC0000BFA44B1B78022B4FD0022B57DC002BDC
:1010FC0002D0012B35D052E0012000F06DFA0346EE
:10110C00002B4ED09C4B1B68012B0AD19B4B1B68B0
:10111C00622B03DC994B1B68013300E00123974AD7
:10112C001360954B1B68032B0AD1954B1B68622BE4
:10113C0003DC934B1B68013300E00123904A1360DE
:10114C00904B1B68904A13608E4B14221A608F4B85
:10115C001B681946042000F05DFF864B01221A70B3
:10116C001FE0012000F038FA0346002B03D1814B1D
:10117C0000221A7017E0012000F048FA0346002BF9
:10118C0011D07C4B02221A700DE0012000F024FAE1
:10119C000346002B09D1774B00221A7005E000BFE3
:1011AC0076E100BF74E100BF72E100BF70E1724BE9
:1011BC001B68184600F044FA754B1B68012B01D1D3
:1011CC00FFF71CF8724B5B68012B14D1714B1B6839
:1011DC005A1C70490A60184600F098FC6D4B1B684D
:1011EC00052B02DD6B4B00221A606B4B1B681946FA
:1011FC00012000F00FFF664BDB68012B06D1614B21
:10120C001B68614A13605F4B15221A60594B1B789F
:10121C00022B48D0022B63DC002B02D0012B1CD0FC
:10122C005EE0012000F0D8F90346002B5AD0FFF7FE
:10123C0045F8574B1B69012B0BD1584B1B681946B2
:10124C00032000F0E7FE514B1B681946042000F008
:10125C00E1FE484B01221A7044E0012000F0BCF979
:10126C000346002B03D1434B00221A703CE0484B41
:10127C001B69012B0DD1FFF721F8484B1B68194650
:10128C00032000F0C7FE414B1B681946042000F0F8
:10129C00C1FE012000F0BAF90346002B24D0354BD7
:1012AC0002221A7020E0012000F096F90346002B70
:1012BC0003D1304B00221A7018E0354B1B69012BFF
:1012CC0014D1FEF7FBFF354B1B681946032000F0C9
:1012DC00A1FE2E4B1B681946042000F09BFE05E076
:1012EC0000BF04E000BF02E000BF00E000BF2C4BD9
:1012FC001B78022B2BD0022B33DC002B02D0012BC2
:10130C0011D02EE0022000F067F90346002B2AD002
:10131C001C4B1B681C4A13601A4B16221A60204B7C
:10132C0001221A701FE0022000F056F90346002B30
:10133C0003D11B4B00221A7017E0022000F066F953
:10134C000346002B11D0164B02221A700DE002201E
:10135C0000F042F90346002B09D1114B00221A7000
:10136C0005E000BF94E000BF92E000BF90E000BF3A
:10137C008EE000BFE5000020D0000020D40000204B
:10138C00D8000020C8000020CC0000200400002061
:10139C0098000020C0000020080000201000002051
:1013AC00E60000203B4B1B68184600F049F93A4B0D
:1013BC001B68012B01D1FEF721FF374B5B68012B1A
:1013CC0014D1364B1B685A1C34490A60184600F07D
:1013DC009DFB324B1B68052B02DD304B00221A6043
:1013EC002F4B1B681946012000F014FE2D4B1B6877
:1013FC002D4A13602B4B16221A6049E0254B1B68B3
:10140C00184600F01DF9244B1B68012B01D1FEF787
:10141C00F5FE214B5B68012B14D1204B1B685A1C29
:10142C001E490A60184600F071FB1C4B1B68052B0B
:10143C0002DD1A4B00221A60194B1B681946012059
:10144C0000F0E8FD144B9B68012B05D1174B1B6872
:10145C001946022000F0DEFD134B1B68152B08D13A
:10146C00134B1B68134A1360134B1B68134A13600E
:10147C0007E00D4B1B68142B03D1FEF7A5FFFFF7FC
:10148C0061F8FFF721F80E4B00221A6000E000BF54
:10149C0000BF80BDD000002098000020C0000020BC
:1014AC0008000020C8000020CC0000200C00002008
:1014BC00DC000020D4000020E0000020D800002038
:1014CC00C400002080B582B000AF78607B68022B2E
:1014DC0017D07B68022B1BDC7B68002B03D07B684E
:1014EC00012B07D014E04FF400510C4801F0F6F832
:1014FC0003460EE04FF48041084801F0EFF8034634
:10150C0007E04FF40041054801F0E8F8034600E01D
:10151C00012318460837BD4680BD00BF00100140AE
:10152C0090B583B000AF0023FB7142E0FA79FB79F0
:10153C002449895C244AD154FB79FC791846FFF77D
:10154C00C1FF03461A461F4B1A55FB791D4AD25C44
:10155C00FB791D49CB5C9A4228D1FA79FB79194960
:10156C00895C1A4AD154FB79184AD35C002B14D1EC
:10157C00FB79174A32F81330632B09D8FB79144ADC
:10158C0032F81320013291B2114A22F813100DE0F7
:10159C00FB79104A0121D15408E0FB790C4A002157
:1015AC0022F81310FB790B4A0021D154FB7901333B
:1015BC00FB71FB79022BB9D900BF00BF0C37BD46BC
:1015CC0090BD00BFEC000020F0000020E8000020DF
:1015DC00F8000020F400002080B483B000AF7860E5
:1015EC007B68022B01D9002308E0074A7B6813446F
:1015FC001B78002B0CBF01230023DBB218460C37E1
:10160C00BD4680BC704700BFE800002080B483B0AA
:10161C0000AF78607B68022B01D9002308E0074AF1
:10162C007B6813441B78012B0CBF01230023DBB216
:10163C0018460C37BD4680BC704700BFF400002034
:10164C0080B582B000AF78607B68042B00F2C78055
:10165C0001A252F823F000BF79160008C316000847
:10166C000D17000857170008A117000800224FF4A7
:10167C0080615D4801F049F800224FF400615A483E
:10168C0001F043F800224FF48051574801F03DF827
:10169C0000224FF40051544801F037F800224FF467
:1016AC008041514801F031F800224FF400414E487E
:1016BC0001F02BF894E000224FF480614A4801F0CD
:1016CC0024F800224FF40061474801F01EF8012273
:1016DC004FF48051444801F018F801224FF40051A6
:1016EC00414801F012F800224FF480413E4801F0CD
:1016FC000CF800224FF400413B4801F006F86FE073
:10170C0000224FF48061384800F0FFFF01224FF4B3
:10171C000061354800F0F9FF00224FF48051324847
:10172C0000F0F3FF01224FF400512F4800F0EDFFC1
:10173C0000224FF480412C4800F0E7FF00224FF4C8
:10174C000041294800F0E1FF4AE001224FF480619A
:10175C00254800F0DAFF00224FF40061224800F027
:10176C00D4FF00224FF480511F4800F0CEFF00221E
:10177C004FF400511C4800F0C8FF00224FF4804188
:10178C00194800F0C2FF01224FF40041164800F046
:10179C00BCFF25E001224FF48061134800F0B5FF37
:1017AC0000224FF40061104800F0AFFF00224FF40C
:1017BC0080510D4800F0A9FF00224FF400510A4857
:1017CC0000F0A3FF01224FF48041074800F09DFF79
:1017DC0000224FF40041044800F097FF00E000BFE6
:1017EC0000BF0837BD4680BD000C014080B582B0FB
:1017FC0000AF78607B68092B00F2808101A252F85F
:10180C0023F000BF3918000881180008C918000817
:10181C001119000859190008A1190008E919000844
:10182C00311A0008791A0008C11A00080022012197
:10183C00B54800F06AFF00220221B34800F065FFB2
:10184C0000220421B04800F060FF00220821AE48BD
:10185C0000F05BFF00221021AB4800F056FF002285
:10186C002021A94800F051FF01224021A64800F098
:10187C004CFF44E101220121A34800F046FF002265
:10188C000221A14800F041FF002204219E4800F0F3
:10189C003CFF012208219C4800F037FF0122102157
:1018AC00994800F032FF01222021974800F02DFFCB
:1018BC0001224021944800F028FF20E10022012160
:1018CC00914800F022FF002202218F4800F01DFFFA
:1018DC00012204218C4800F018FF002208218A48BC
:1018EC0000F013FF00221021874800F00EFF0122A8
:1018FC002021854800F009FF00224021824800F099
:10190C0004FFFCE0002201217F4800F0FEFE0022D3
:10191C0002217D4800F0F9FE002204217A4800F0F3
:10192C00F4FE00220821784800F0EFFE012210217D
:10193C00754800F0EAFE01222021734800F0E5FE14
:10194C0000224021704800F0E0FED8E00122012185
:10195C006D4800F0DAFE002202216B4800F0D5FE43
:10196C0000220421684800F0D0FE012208216648BC
:10197C0000F0CBFE01221021634800F0C6FE0022CD
:10198C002021614800F0C1FE002240215E4800F099
:10199C00BCFEB4E0002201215B4800F0B6FE01223F
:1019AC000221594800F0B1FE00220421564800F0F3
:1019BC00ACFE00220821544800F0A7FE01221021A1
:1019CC00514800F0A2FE002220214F4800F09DFE5D
:1019DC00002240214C4800F098FE90E000220121AA
:1019EC00494800F092FE01220221474800F08DFE8A
:1019FC0000220421444800F088FE002208214248BD
:101A0C0000F083FE002210213F4800F07EFE0022F1
:101A1C0020213D4800F079FE002240213A4800F098
:101A2C0074FE6CE000220121374800F06EFE0022AB
:101A3C000221354800F069FE00220421324800F0F2
:101A4C0064FE01220821304800F05FFE01221021C3
:101A5C002D4800F05AFE012220212B4800F055FEA3
:101A6C0001224021284800F050FE48E000220121CC
:101A7C00254800F04AFE00220221234800F045FED2
:101A8C0000220421204800F040FE002208211E48BC
:101A9C0000F03BFE002210211B4800F036FE002215
:101AAC002021194800F031FE00224021164800F098
:101ABC002CFE24E000220121134800F026FE002217
:101ACC000221114800F021FE002204210E4800F0F2
:101ADC001CFE002208210C4800F017FE01221021E8
:101AEC00094800F012FE00222021074800F00DFEEC
:101AFC0000224021044800F008FE00E000BF00BFB7
:101B0C000837BD4680BD00BF000C014080B582B0D7
:101B1C0000AF7860012202212F4800F0F6FD01226F
:101B2C0004212D4800F0F1FD012208212A4800F083
:101B3C00ECFD01221021284800F0E7FD01222021B4
:101B4C00254800F0E2FD01224021234800F0DDFD94
:101B5C00224A7B6852F823301846FFF747FE7B6811
:101B6C00052B33D801A252F823F000BF911B0008BB
:101B7C009D1B0008A91B0008B51B0008C11B000811
:101B8C00CD1B000800220221134800F0BEFD1EE010
:101B9C0000220421104800F0B8FD18E000220821B2
:101BAC000D4800F0B2FD12E0002210210A4800F0AE
:101BBC00ACFD0CE000222021074800F0A6FD06E059
:101BCC0000224021044800F0A0FD00E000BF00BF4F
:101BDC000837BD4680BD00BF00080140140000203E
:101BEC0080B485B000AFF860B9607A60FB68244AB5
:101BFC0082FB03129210DB17D31A224A1360F96886
:101C0C001F4B83FB01239A10CB17D21A13469B0050
:101C1C0013445B00CA1A1B4B5A60BB68184A82FB00
:101C2C0003129210DB17D31A164A9360B968144B3F
:101C3C0083FB01239A10CB17D21A13469B00134433
:101C4C005B00CA1A0F4BDA607B680D4A82FB0312E9
:101C5C009210DB17D31A0B4A13617968084B83FB7C
:101C6C0001239A10CB17D21A13469B0013445B0026
:101C7C00CA1A044B5A6100BF1437BD4680BC70476A
:101C8C00676666661400002080B500AF00F03CFA71
:101C9C0000F012F800F098F800F04AF8044801F04F
:101CAC0091F9044B00221A60FEF7B4FCFCE700BF6C
:101CBC0000010020C800002080B590B000AF07F1F3
:101CCC00180328220021184601F02CFD3B1D002290
:101CDC001A605A609A60DA601A610223BB610123B0
:101CEC00BB621023FB6200237B6307F118031846C9
:101CFC0000F03CFD0346002B01D000F0F7F80F2359
:101D0C007B600023BB600023FB6000233B6100234E
:101D1C007B613B1D0021184600F0A8FF0346002BF9
:101D2C0001D000F0E3F800BF4037BD4680BD000095
:101D3C0080B586B000AF07F1080300221A605A6024
:101D4C009A60DA603B4600221A605A601D4B4FF0D5
:101D5C0080421A601B4B40F21F325A60194B002212
:101D6C009A60184B0922DA60164B00221A61154B47
:101D7C0000229A61134801F0D5F80346002B01D0DC
:101D8C0000F0B4F84FF48053BB6007F10803194618
:101D9C000C4801F053FA0346002B01D000F0A6F8D2
:101DAC0000233B6000237B603B461946054801F04D
:101DBC002BFC0346002B01D000F098F800BF18371D
:101DCC00BD4680BD0001002080B588B000AF07F192
:101DDC00100300221A605A609A60DA602F4B9B69DC
:101DEC002E4A43F0100393612C4B9B6903F01003B4
:101DFC00FB60FB68294B9B69284A43F00403936101
:101E0C00264B9B6903F00403BB60BB68234B9B69A7
:101E1C00224A43F008039361204B9B6903F00803AB
:101E2C007B607B68002248F27E011D4800F06DFC4F
:101E3C0000224FF67F411B4800F067FC4FF46043D3
:101E4C003B6100237B610123BB6107F11003194641
:101E5C00154800F0C9FA48F27E033B6101237B610F
:101E6C000023BB610223FB6107F1100319460C48E8
:101E7C0000F0BAFA4FF67F433B6101237B610023EC
:101E8C00BB610223FB6107F110031946054800F002
:101E9C00ABFA00BF2037BD4680BD00BF001002402A
:101EAC0000080140000C01400010014080B582B0D8
:101EBC0000AF78607B681B68B3F1804F0FD100F0E6
:101ECC00CDF8094B1B68013B074A1360064B1B6896
:101EDC00002B04DC044B0A221A60FFF721FB00BF25
:101EEC000837BD4680BD00BF4400002080B400AF61
:101EFC0072B600BFFEE7000080B485B000AF154B92
:101F0C009B69144A43F001039361124B9B6903F0E4
:101F1C000103BB60BB680F4BDB690E4A43F0805377
:101F2C00D3610C4BDB6903F080537B607B680A4BFD
:101F3C005B68FB60FB6823F0E063FB60FB6843F0CD
:101F4C008063FB60044AFB68536000BF1437BD46D6
:101F5C0080BC7047001002400000014080B584B086
:101F6C0000AF78607B681B68B3F1804F13D10C4BCA
:101F7C00DB690B4A43F00103D361094BDB6903F0C6
:101F8C000103FB60FB68002200211C2000F0F5F926
:101F9C001C2000F00EFA00BF1037BD4680BD00BFFC
:101FAC000010024080B400AFFEE780B400AFFEE743
:101FBC0080B400AFFEE780B400AFFEE780B400AFA2
:101FCC00FEE780B400AF00BFBD4680BC704780B454
:101FDC0000AF00BFBD4680BC704780B400AF00BFEF
:101FEC00BD4680BC704780B500AF00F0D3F800BF91
:101FFC0080BD000080B500AF024801F02FF800BF93
:10200C0080BD00BF0001002080B400AF00BFBD4602
:10201C0080BC704780B483B000AF786039607B6857
:10202C00002B10DB7B68092B0DDC094B1B683A6815
:10203C0092FBF3F207497B6841F82320064A7B6840
:10204C00002142F8231000BF0C37BD4680BC7047FE
:10205C0000000020700000209800002080B483B0A5
:10206C0000AF00237B601CE0124A7B6852F82330DF
:10207C00002B13DD0F4A7B6852F823305A1E0D4992
:10208C007B6841F823200B4A7B6852F82330002BE5
:10209C0004DC094A7B68012142F823107B68013378
:1020AC007B607B68092BDFDD00BF00BF0C37BD46B2
:1020BC0080BC70477000002098000020FFF7A4FF40
:1020CC000B480C490C4A002302E0D458C45004338A
:1020DC00C4188C42F9D3094A094C002301E013605F
:1020EC000432A242FBD301F0F9FAFFF7CDFD7047A1
:1020FC0000000020540000209C37000854000020F1
:10210C004C010020FEE7000080B500AF084B1B68B7
:10211C00074A43F010031360032000F023F90F204B
:10212C0000F008F8FFF7E8FE0023184680BD00BF5A
:10213C000020024080B582B000AF7860124B1A6864
:10214C00124B1B7819464FF47A73B3FBF1F3B2FBC5
:10215C00F3F3184600F03BF90346002B01D00123A2
:10216C000EE07B680F2B0AD8002279684FF0FF3005
:10217C0000F003F9064A7B681360002300E001239A
:10218C0018460837BD4680BD48000020500000208E
:10219C004C00002080B400AF054B1B781A46054B51
:1021AC001B681344034A136000BFBD4680BC7047D4
:1021BC00500000204801002080B400AF024B1B6887
:1021CC001846BD4680BC70474801002080B485B0DD
:1021DC0000AF78607B6803F00703FB600C4BDB6897
:1021EC00BB60BA684FF6FF031340BB60FB681A0272
:1021FC00BB68134343F0BF6343F40033BB60044A32
:10220C00BB68D36000BF1437BD4680BC704700BFAD
:10221C0000ED00E080B400AF044BDB681B0A03F058
:10222C0007031846BD4680BC704700BF00ED00E0B8
:10223C0080B483B000AF0346FB7197F90730002BD5
:10224C000BDBFB7903F01F02064997F907305B099A
:10225C00012000FA02F241F8232000BF0C37BD46E2
:10226C0080BC704700E100E080B483B000AF03464F
:10227C003960FB7197F90730002B0ADB3B68DAB247
:10228C000C4997F907301201D2B20B4483F80023A2
:10229C000AE03B68DAB20849FB7903F00F03043B10
:1022AC001201D2B20B441A7600BF0C37BD4680BC6B
:1022BC00704700BF00E100E000ED00E080B489B0A1
:1022CC0000AFF860B9607A60FB6803F00703FB614C
:1022DC00FB69C3F10703042B28BF0423BB61FB6913
:1022EC000433062B02D9FB69033B00E000237B611E
:1022FC004FF0FF32BB6902FA03F3DA43BB681A40B2
:10230C007B699A404FF0FF317B6901FA03F3D943A3
:10231C007B680B40134318462437BD4680BC70477E
:10232C0080B582B000AF78607B68013BB3F1807FF1
:10233C0001D301230FE00A4A7B68013B53600F2154
:10234C004FF0FF30FFF790FF054B00229A60044BD3
:10235C0007221A60002318460837BD4680BD00BF0F
:10236C0010E000E080B582B000AF78607868FFF7CD
:10237C002DFF00BF0837BD4680BD80B586B000AFCD
:10238C000346B9607A60FB7300237B61FFF742FF61
:10239C0078617A68B9687869FFF790FF024697F917
:1023AC000F3011461846FFF75FFF00BF1837BD46C8
:1023BC0080BD80B582B000AF0346FB7197F9073042
:1023CC001846FFF735FF00BF0837BD4680BD80B506
:1023DC0082B000AF78607868FFF7A2FF034618461A
:1023EC000837BD4680BD000080B48BB000AF78606C
:1023FC00396000237B6200233B6248E101227B6A47
:10240C0002FA03F3FB613B681B68FA691340BB617A
:10241C00BA69FB699A4240F037813B685B68A34A12
:10242C0093425ED0A14A934275D8A14A934258D0A8
:10243C009F4A93426FD89F4A934252D09D4A9342EF
:10244C0069D89D4A93424CD09B4A934263D89B4A8D
:10245C00934246D0994A93425DD8122B2AD8122B1C
:10246C0059D801A252F823F0EF240008C92400081F
:10247C00DB2400081D25000823250008232500085F
:10248C002325000823250008232500082325000800
:10249C0023250008232500082325000823250008F0
:1024AC00232500082325000823250008D124000833
:1024BC00E5240008824A934213D02CE03B68DB6889
:1024CC003B6229E03B68DB6804333B6224E03B68F9
:1024DC00DB6808333B621FE03B68DB680C333B6214
:1024EC001AE03B689B68002B02D104233B6213E08B
:1024FC003B689B68012B05D108233B627B68FA691A
:10250C001A6109E008233B627B68FA695A6103E0AF
:10251C0000233B6200E000BFBB69FF2B01D87B6846
:10252C0001E07B6804337B61BB69FF2B02D87B6ABB
:10253C009B0002E07B6A083B9B003B617B691A684D
:10254C000F213B6901FA03F3DB431A40396A3B69FB
:10255C0001FA03F31A437B691A603B685B6803F06A
:10256C008053002B00F09080564B9B69554A43F0EA
:10257C0001039361534B9B6903F00103BB60BB6880
:10258C00514A7B6A9B08023352F82330FB607B6A0A
:10259C0003F003039B000F2202FA03F3DB43FA68F8
:1025AC001340FB607B68494A93420DD07B68484AD4
:1025BC00934207D07B68474A934201D1022304E03F
:1025CC00032302E0012300E000237A6A02F00302F5
:1025DC0092009340FA681343FB603B497B6A9B086B
:1025EC000233FA6841F823203B685B6803F48013DC
:1025FC00002B06D0384B9A683749BB6913438B6064
:10260C0006E0354B9A68BB69DB43334913408B605A
:10261C003B685B6803F40013002B06D02E4BDA6882
:10262C002D49BB691343CB6006E02B4BDA68BB69C1
:10263C00DB4329491340CB603B685B6803F40033F0
:10264C00002B06D0244B5A682349BB6913434B60BB
:10265C0006E0214B5A68BB69DB431F4913404B60B2
:10266C003B685B6803F48033002B06D01A4B1A6866
:10267C001949BB6913430B6006E0174B1A68BB6919
:10268C00DB43154913400B607B6A01337B623B686B
:10269C001A687B6A22FA03F3002B7FF4AFAE00BFFB
:1026AC0000BF2C37BD4680BC704700BF0000321005
:1026BC000000311000002210000021100000121048
:1026CC000000111000100240000001400008014001
:1026DC00000C0140001001400004014080B485B0A2
:1026EC0000AF78600B467B807B689A687B881340D0
:1026FC00002B02D00123FB7301E00023FB73FB7B57
:10270C0018461437BD4680BC704780B483B000AF08
:10271C0078600B467B8013467B707B78002B03D054
:10272C007A887B681A6103E07B881A047B681A61DB
:10273C0000BF0C37BD4680BC704780B485B000AF7D
:10274C0078600B467B807B68DB68FB607A88FB6873
:10275C0013401A04FB68D9437B880B401A437B68EF
:10276C001A6100BF1437BD4680BC704780B586B077
:10277C0000AF78607B68002B01D101236CE27B6891
:10278C001B6803F00103002B00F08780924B5B6801
:10279C0003F00C03042B0CD08F4B5B6803F00C0381
:1027AC00082B12D18C4B5B6803F48033B3F5803F5C
:1027BC000BD1894B1B6803F40033002B6CD07B6866
:1027CC005B68002B68D1012346E27B685B68B3F53C
:1027DC00803F06D1804B1B687F4A43F480331360E3
:1027EC002EE07B685B68002B0CD17B4B1B687A4A14
:1027FC0023F480331360784B1B68774A23F48023CF
:10280C0013601DE07B685B68B3F5A02F0CD1724B95
:10281C001B68714A43F4802313606F4B1B686E4A2C
:10282C0043F4803313600BE06B4B1B686A4A23F450
:10283C0080331360684B1B68674A23F48023136052
:10284C007B685B68002B13D0FFF7B6FC386108E09F
:10285C00FFF7B2FC02463B69D31A642B01D9032360
:10286C00FAE15D4B1B6803F40033002BF0D014E04D
:10287C00FFF7A2FC386108E0FFF79EFC02463B69BB
:10288C00D31A642B01D90323E6E1534B1B6803F4E1
:10289C000033002BF0D100E000BF7B681B6803F015
:1028AC000203002B63D04C4B5B6803F00C03002B32
:1028BC000BD0494B5B6803F00C03082B1CD1464B27
:1028CC005B6803F48033002B16D1434B1B6803F079
:1028DC000203002B05D07B681B69012B01D001235F
:1028EC00BAE13D4B1B6823F0F8027B685B69DB00A7
:1028FC00394913430B603AE07B681B69002B20D0ED
:10290C00364B01221A60FFF757FC386108E0FFF7DD
:10291C0053FC02463B69D31A022B01D903239BE1DA
:10292C002D4B1B6803F00203002BF0D02A4B1B68C5
:10293C0023F0F8027B685B69DB00274913430B60CB
:10294C0015E0264B00221A60FFF736FC386108E0D0
:10295C00FFF732FC02463B69D31A022B01D9032341
:10296C007AE11D4B1B6803F00203002BF0D17B684E
:10297C001B6803F00803002B3AD07B689B69002B83
:10298C0019D0174B01221A60FFF716FC386108E0CA
:10299C00FFF712FC02463B69D31A022B01D9032321
:1029AC005AE10D4B5B6A03F00203002BF0D00120BF
:1029BC0000F09AFA1CE00A4B00221A60FFF7FCFBAD
:1029CC0038610FE0FFF7F8FB02463B69D31A022B84
:1029DC0008D9032340E100BF00100240000042422E
:1029EC00800442429E4B5B6A03F00203002BE9D148
:1029FC007B681B6803F00403002B00F0A680002307
:102A0C00FB75974BDB6903F08053002B0DD1944B76
:102A1C00DB69934A43F08053D361914BDB6903F03C
:102A2C008053BB60BB680123FB758E4B1B6803F4A2
:102A3C008073002B18D18B4B1B688A4A43F480732C
:102A4C001360FFF7B9FB386108E0FFF7B5FB0246EE
:102A5C003B69D31A642B01D90323FDE0814B1B681E
:102A6C0003F48073002BF0D07B68DB68012B06D15C
:102A7C007B4B1B6A7A4A43F0010313622DE07B689F
:102A8C00DB68002B0CD1764B1B6A754A23F00103D3
:102A9C001362734B1B6A724A23F0040313621CE02B
:102AAC007B68DB68052B0CD16D4B1B6A6C4A43F0C1
:102ABC00040313626A4B1B6A694A43F001031362F5
:102ACC000BE0674B1B6A664A23F001031362644BED
:102ADC001B6A634A23F0040313627B68DB68002BD8
:102AEC0015D0FFF769FB38610AE0FFF765FB02467A
:102AFC003B69D31A41F28832934201D90323ABE0EC
:102B0C00574B1B6A03F00203002BEED014E0FFF7C7
:102B1C0053FB38610AE0FFF74FFB02463B69D31ABF
:102B2C0041F28832934201D9032395E04C4B1B6A46
:102B3C0003F00203002BEED1FB7D012B05D1484B9A
:102B4C00DB69474A23F08053D3617B68DB69002B38
:102B5C0000F08180424B5B6803F00C03082B61D0C2
:102B6C007B68DB69022B46D13F4B00221A60FFF7D2
:102B7C0023FB386108E0FFF71FFB02463B69D31AC1
:102B8C00022B01D9032367E0354B1B6803F000735C
:102B9C00002BF0D17B681B6AB3F5803F08D1304B1A
:102BAC005B6823F400327B689B682D4913434B60B0
:102BBC002B4B5B6823F474127B68196A7B685B6A25
:102BCC000B43274913434B60274B01221A60FFF735
:102BDC00F3FA386108E0FFF7EFFA02463B69D31AC3
:102BEC00022B01D9032337E01D4B1B6803F0007344
:102BFC00002BF0D02FE01C4B00221A60FFF7DCFA00
:102C0C00386108E0FFF7D8FA02463B69D31A022B69
:102C1C0001D9032320E0124B1B6803F00073002B37
:102C2C00F0D118E07B68DB69012B01D1012313E0A3
:102C3C000B4B5B68FB60FB6803F480327B681B6AA0
:102C4C009A4206D1FB6803F470127B685B6A9A4265
:102C5C0001D0012300E0002318461837BD4680BD83
:102C6C0000100240007000406000424280B584B009
:102C7C0000AF786039607B68002B01D10123D0E074
:102C8C006A4B1B6803F007033A689A4210D9674BEA
:102C9C001B6823F0070265493B6813430B60634BC9
:102CAC001B6803F007033A689A4201D00123B8E08D
:102CBC007B681B6803F00203002B20D07B681B6829
:102CCC0003F00403002B05D0594B5B68584A43F4BE
:102CDC00E06353607B681B6803F00803002B05D08E
:102CEC00534B5B68524A43F460535360504B5B68E0
:102CFC0023F0F0027B689B684D4913434B607B6863
:102D0C001B6803F00103002B40D07B685B68012B30
:102D1C0007D1474B1B6803F40033002B15D101235B
:102D2C007FE07B685B68022B07D1414B1B6803F08B
:102D3C000073002B09D1012373E03D4B1B6803F09A
:102D4C000203002B01D101236BE0394B5B6823F0AC
:102D5C0003027B685B68364913434B60FFF72CFA20
:102D6C00F8600AE0FFF728FA0246FB68D31A41F232
:102D7C008832934201D9032353E02D4B5B6803F057
:102D8C000C027B685B689B009A42EBD1274B1B685B
:102D9C0003F007033A689A4210D2244B1B6823F0C5
:102DAC00070222493B6813430B60204B1B6803F05E
:102DBC0007033A689A4201D0012332E07B681B6812
:102DCC0003F00403002B08D0194B5B6823F4E0627A
:102DDC007B68DB68164913434B607B681B6803F008
:102DEC000803002B09D0124B5B6823F460527B68FC
:102DFC001B69DB000E4913434B6000F021F80246BF
:102E0C000B4B5B681B0903F00F030A49CB5C22FADE
:102E1C0003F3094A1360094B1B681846FFF78AF93C
:102E2C00002318461037BD4680BD00BF002002406D
:102E3C000010024070370008480000204C000020B1
:102E4C0080B487B000AF0023FB600023BB6000237D
:102E5C007B6100237B6000233B611E4B5B68FB6046
:102E6C00FB6803F00C03042B02D0082B03D027E0E3
:102E7C00194B3B6127E0FB689B0C03F00F03174ACF
:102E8C00D35C7B60FB6803F48033002B10D0114BB8
:102E9C005B685B0C03F00103114AD35CBB607B687D
:102EAC000D4A02FB03F2BB68B2FBF3F37B6104E057
:102EBC007B680C4A02FB03F37B617B693B6102E09C
:102ECC00054B3B6100BF3B6918461C37BD4680BCB7
:102EDC00704700BF0010024000127A0080370008D3
:102EEC009037000800093D0080B485B000AF7860D1
:102EFC000A4B1B680A4AA2FB03235B0A7A6802FB93
:102F0C0003F3FB6000BFFB685A1EFA60002BF9D17B
:102F1C0000BF00BF1437BD4680BC7047480000207E
:102F2C00D34D621080B582B000AF78607B68002B07
:102F3C0001D1012341E07B6893F83D30DBB2002BDB
:102F4C0006D17B68002283F83C207868FFF706F8EE
:102F5C007B68022283F83D207B681A687B68043307
:102F6C001946104600F056FA7B68012283F8462079
:102F7C007B68012283F83E207B68012283F83F2086
:102F8C007B68012283F840207B68012283F8412072
:102F9C007B68012283F842207B68012283F843205E
:102FAC007B68012283F844207B68012283F845204A
:102FBC007B68012283F83D20002318460837BD4664
:102FCC0080BD000080B485B000AF78607B6893F85A
:102FDC003D30DBB2012B01D0012335E07B680222AE
:102FEC0083F83D207B681B68DA687B681B6842F0BD
:102FFC000102DA607B681B68164A934209D07B6831
:10300C001B68B3F1804F04D07B681B68124A934253
:10301C0011D17B681B689B6803F00703FB60FB689E
:10302C00062B10D07B681B681A687B681B6842F003
:10303C0001021A6007E07B681B681A687B681B68D2
:10304C0042F001021A60002318461437BD4680BCBA
:10305C00704700BF002C01400004004080B584B0D4
:10306C0000AF78607B681B68DB68FB607B681B6863
:10307C001B69BB60BB6803F00203002B20D0FB680C
:10308C0003F00203002B1BD07B681B686FF002025D
:10309C001A617B6801221A777B681B689B6903F0B5
:1030AC000303002B03D0786800F098F905E07868EA
:1030BC0000F08BF9786800F09AF97B6800221A7797
:1030CC00BB6803F00403002B20D0FB6803F004035F
:1030DC00002B1BD07B681B686FF004021A617B68A5
:1030EC0002221A777B681B689B6903F44073002BE0
:1030FC0003D0786800F072F905E0786800F065F9A3
:10310C00786800F074F97B6800221A77BB6803F0CA
:10311C000803002B20D0FB6803F00803002B1BD006
:10312C007B681B686FF008021A617B6804221A77AF
:10313C007B681B68DB6903F00303002B03D0786802
:10314C0000F04CF905E0786800F03FF9786800F081
:10315C004EF97B6800221A77BB6803F01003002B32
:10316C0020D0FB6803F01003002B1BD07B681B687E
:10317C006FF010021A617B6808221A777B681B6853
:10318C00DB6903F44073002B03D0786800F026F958
:10319C0005E0786800F019F9786800F028F97B6888
:1031AC0000221A77BB6803F00103002B0CD0FB68DC
:1031BC0003F00103002B07D07B681B686FF0010242
:1031CC001A617868FEF772FEBB6803F08003002B6F
:1031DC000CD0FB6803F08003002B07D07B681B68C6
:1031EC006FF080021A61786800F06FFABB6803F028
:1031FC004003002B0CD0FB6803F04003002B07D0DE
:10320C007B681B686FF040021A61786800F0F8F870
:10321C00BB6803F02003002B0CD0FB6803F02003E9
:10322C00002B07D07B681B686FF020021A6178684E
:10323C0000F042FA00BF1037BD4680BD80B584B0A7
:10324C0000AF786039600023FB737B6893F83C30E7
:10325C00012B01D10223B4E07B68012283F83C20CE
:10326C007B68022283F83D207B681B689B68BB60EF
:10327C00BB6823F07703BB60BB6823F47F43BB6060
:10328C007B681B68BA689A603B681B68B3F5005F83
:10329C003ED0B3F5005F00F28780B3F5805F00F09D
:1032AC008680B3F5805F7FD8702B1AD0702B7BD8BB
:1032BC00602B50D0602B77D8502B3CD0502B73D830
:1032CC00402B58D0402B6FD8302B64D0302B6BD880
:1032DC00202B60D0202B67D8002B5CD0102B5AD021
:1032EC0062E07B6818683B6899683B685A683B6881
:1032FC00DB6800F06AF97B681B689B68BB60BB6885
:10330C0043F07703BB607B681B68BA689A604FE038
:10331C007B6818683B6899683B685A683B68DB684F
:10332C0000F053F97B681B689A687B681B6842F451
:10333C0080429A603CE07B6818683B6859683B683F
:10334C00DB681A4600F0CAF87B681B6850211846E7
:10335C0000F021F92CE07B6818683B6859683B68E1
:10336C00DB681A4600F0E8F87B681B686021184699
:10337C0000F011F91CE07B6818683B6859683B68E1
:10338C00DB681A4600F0AAF87B681B6840211846D7
:10339C0000F001F90CE07B681A683B681B68194661
:1033AC00104600F0F8F803E00123FB7300E000BFC7
:1033BC007B68012283F83D207B68002283F83C2047
:1033CC00FB7B18461037BD4680BD80B483B000AF80
:1033DC00786000BF0C37BD4680BC704780B483B0AA
:1033EC0000AF786000BF0C37BD4680BC704780B41E
:1033FC0083B000AF786000BF0C37BD4680BC70470F
:10340C0080B483B000AF786000BF0C37BD4680BC81
:10341C007047000080B485B000AF786039607B687D
:10342C001B68FB607B682B4A934207D07B68B3F127
:10343C00804F03D07B68284A934208D1FB6823F065
:10344C007003FB603B685B68FA681343FB607B6846
:10345C00204A934207D07B68B3F1804F03D07B683E
:10346C001D4A934208D1FB6823F44073FB603B6810
:10347C00DB68FA681343FB60FB6823F080023B684F
:10348C005B691343FB607B68FA681A603B689A6857
:10349C007B68DA623B681A687B689A627B680D4AC3
:1034AC00934203D13B681A697B681A637B680122DB
:1034BC005A617B681B6903F00103002B05D07B6804
:1034CC001B6923F001027B681A6100BF1437BD46EB
:1034DC0080BC7047002C01400004004080B487B0D1
:1034EC0000AFF860B9607A60FB681B6A7B61FB68AF
:1034FC001B6A23F00102FB681A62FB689B693B6143
:10350C003B6923F0F0033B617B681B013A69134371
:10351C003B617B6923F00A037B617A69BB681343C7
:10352C007B61FB683A699A61FB687A691A6200BF31
:10353C001C37BD4680BC704780B487B000AFF860C4
:10354C00B9607A60FB681B6A7B61FB681B6A23F0BD
:10355C001002FB681A62FB689B693B613B6923F4B0
:10356C0070433B617B681B033A6913433B617B6986
:10357C0023F0A0037B61BB681B017A6913437B6159
:10358C00FB683A699A61FB687A691A6200BF1C375A
:10359C00BD4680BC704780B485B000AF78603960A0
:1035AC007B689B68FB60FB6823F07003FB603A68E8
:1035BC00FB68134343F00703FB607B68FA689A606F
:1035CC0000BF1437BD4680BC704780B487B000AFD5
:1035DC00F860B9607A603B60FB689B687B617B69D3
:1035EC0023F47F437B613B681A027B681A43BB68F8
:1035FC0013437A6913437B61FB687A699A6000BF55
:10360C001C37BD4680BC704780B485B000AF786075
:10361C0039607B6893F83C30012B01D1022341E0E7
:10362C007B68012283F83C207B68022283F83D20D2
:10363C007B681B685B68FB607B681B689B68BB6076
:10364C00FB6823F07003FB603B681B68FA6813434C
:10365C00FB607B681B68FA685A607B681B68144ABD
:10366C00934209D07B681B68B3F1804F04D07B6810
:10367C001B68104A93420CD1BB6823F08003BB60DB
:10368C003B685B68BA681343BB607B681B68BA68AD
:10369C009A607B68012283F83D207B68002283F8C6
:1036AC003C20002318461437BD4680BC704700BF31
:1036BC00002C01400004004080B483B000AF78605F
:1036CC0000BF0C37BD4680BC704780B483B000AFE0
:1036DC00786000BF0C37BD4680BC704770B50026C3
:1036EC000C4D0D4C641BA410A64209D100F022F81D
:1036FC0000260A4D0A4C641BA410A64205D170BDCD
:10370C0055F8043B98470136EEE755F8043B9847CB
:10371C000136F2E794370008943700089437000814
:10372C009837000803460244934200D1704703F8CF
:10373C00011BF9E7F8B500BFF8BC08BC9E46704702
:0C374C00F8B500BFF8BC08BC9E467047F2
:103758000500000002000000030000000500000052
:10376800020000000300000000000000000000004C
:1037780001020304060708090203040506070809ED
:0C3788000A0B0C0D0E0F101001020000C7
:0437940031010008F7
:043798000D01000817
:10379C0001000000FA00000005000000F401000028
:1037AC00B80B000001000000020000000300000044
:1037BC0004000000050000000600000003000000EB
:1037CC0002000000030000000200000005000000E1
:1037DC00050000000A00000000127A001000000032
:0437EC0001000000D8
:04000005080020C906
:00000001FF
